{
  "_format": "hh-sol-artifact-1",
  "contractName": "Voting",
  "sourceName": "contracts/Voting.sol",
  "abi": [
    {
      "inputs": [
        {
          "internalType": "uint256",
          "name": "_durationInMinutes",
          "type": "uint256"
        },
        {
          "internalType": "address",
          "name": "_admin",
          "type": "address"
        }
      ],
      "stateMutability": "nonpayable",
      "type": "constructor"
    },
    {
      "inputs": [
        {
          "internalType": "string",
          "name": "_name",
          "type": "string"
        },
        {
          "internalType": "uint256",
          "name": "_age",
          "type": "uint256"
        },
        {
          "internalType": "string",
          "name": "_candidateAddress",
          "type": "string"
        }
      ],
      "name": "addCandidate",
      "outputs": [],
      "stateMutability": "nonpayable",
      "type": "function"
    },
    {
      "inputs": [],
      "name": "admin",
      "outputs": [
        {
          "internalType": "address",
          "name": "",
          "type": "address"
        }
      ],
      "stateMutability": "view",
      "type": "function"
    },
    {
      "inputs": [
        {
          "internalType": "uint256",
          "name": "",
          "type": "uint256"
        }
      ],
      "name": "candidates",
      "outputs": [
        {
          "internalType": "string",
          "name": "name",
          "type": "string"
        },
        {
          "internalType": "uint256",
          "name": "age",
          "type": "uint256"
        },
        {
          "internalType": "string",
          "name": "candidateAddress",
          "type": "string"
        },
        {
          "internalType": "uint256",
          "name": "voteCount",
          "type": "uint256"
        }
      ],
      "stateMutability": "view",
      "type": "function"
    },
    {
      "inputs": [],
      "name": "getAllCandidates",
      "outputs": [
        {
          "components": [
            {
              "internalType": "string",
              "name": "name",
              "type": "string"
            },
            {
              "internalType": "uint256",
              "name": "age",
              "type": "uint256"
            },
            {
              "internalType": "string",
              "name": "candidateAddress",
              "type": "string"
            },
            {
              "internalType": "uint256",
              "name": "voteCount",
              "type": "uint256"
            }
          ],
          "internalType": "struct Voting.Candidate[]",
          "name": "",
          "type": "tuple[]"
        }
      ],
      "stateMutability": "view",
      "type": "function"
    },
    {
      "inputs": [],
      "name": "getAllVoters",
      "outputs": [
        {
          "components": [
            {
              "internalType": "string",
              "name": "name",
              "type": "string"
            },
            {
              "internalType": "uint256",
              "name": "age",
              "type": "uint256"
            },
            {
              "internalType": "bool",
              "name": "hasVoted",
              "type": "bool"
            }
          ],
          "internalType": "struct Voting.Voter[]",
          "name": "",
          "type": "tuple[]"
        }
      ],
      "stateMutability": "view",
      "type": "function"
    },
    {
      "inputs": [],
      "name": "getCandidateCount",
      "outputs": [
        {
          "internalType": "uint256",
          "name": "",
          "type": "uint256"
        }
      ],
      "stateMutability": "view",
      "type": "function"
    },
    {
      "inputs": [],
      "name": "getRemainingTime",
      "outputs": [
        {
          "internalType": "uint256",
          "name": "",
          "type": "uint256"
        }
      ],
      "stateMutability": "view",
      "type": "function"
    },
    {
      "inputs": [],
      "name": "getVotingStatus",
      "outputs": [
        {
          "internalType": "bool",
          "name": "",
          "type": "bool"
        }
      ],
      "stateMutability": "view",
      "type": "function"
    },
    {
      "inputs": [
        {
          "internalType": "address",
          "name": "",
          "type": "address"
        }
      ],
      "name": "hasRegistered",
      "outputs": [
        {
          "internalType": "bool",
          "name": "",
          "type": "bool"
        }
      ],
      "stateMutability": "view",
      "type": "function"
    },
    {
      "inputs": [],
      "name": "isAdmin",
      "outputs": [
        {
          "internalType": "bool",
          "name": "",
          "type": "bool"
        }
      ],
      "stateMutability": "view",
      "type": "function"
    },
    {
      "inputs": [],
      "name": "isRegisteredVoter",
      "outputs": [
        {
          "internalType": "bool",
          "name": "",
          "type": "bool"
        }
      ],
      "stateMutability": "view",
      "type": "function"
    },
    {
      "inputs": [],
      "name": "isVotingOpen",
      "outputs": [
        {
          "internalType": "bool",
          "name": "",
          "type": "bool"
        }
      ],
      "stateMutability": "view",
      "type": "function"
    },
    {
      "inputs": [
        {
          "internalType": "string",
          "name": "_name",
          "type": "string"
        },
        {
          "internalType": "uint256",
          "name": "_age",
          "type": "uint256"
        }
      ],
      "name": "registerVoter",
      "outputs": [],
      "stateMutability": "nonpayable",
      "type": "function"
    },
    {
      "inputs": [
        {
          "internalType": "uint256",
          "name": "_durationInMinutes",
          "type": "uint256"
        }
      ],
      "name": "setVotingDuration",
      "outputs": [],
      "stateMutability": "nonpayable",
      "type": "function"
    },
    {
      "inputs": [],
      "name": "showTotalVoters",
      "outputs": [
        {
          "internalType": "uint256",
          "name": "",
          "type": "uint256"
        }
      ],
      "stateMutability": "view",
      "type": "function"
    },
    {
      "inputs": [],
      "name": "totalVoters",
      "outputs": [
        {
          "internalType": "uint256",
          "name": "",
          "type": "uint256"
        }
      ],
      "stateMutability": "view",
      "type": "function"
    },
    {
      "inputs": [
        {
          "internalType": "uint256",
          "name": "_candidateIndex",
          "type": "uint256"
        }
      ],
      "name": "vote",
      "outputs": [],
      "stateMutability": "nonpayable",
      "type": "function"
    },
    {
      "inputs": [
        {
          "internalType": "address",
          "name": "",
          "type": "address"
        }
      ],
      "name": "voters",
      "outputs": [
        {
          "internalType": "string",
          "name": "name",
          "type": "string"
        },
        {
          "internalType": "uint256",
          "name": "age",
          "type": "uint256"
        },
        {
          "internalType": "bool",
          "name": "hasVoted",
          "type": "bool"
        }
      ],
      "stateMutability": "view",
      "type": "function"
    },
    {
      "inputs": [
        {
          "internalType": "uint256",
          "name": "",
          "type": "uint256"
        }
      ],
      "name": "votersByIndex",
      "outputs": [
        {
          "internalType": "address",
          "name": "",
          "type": "address"
        }
      ],
      "stateMutability": "view",
      "type": "function"
    },
    {
      "inputs": [],
      "name": "votingEnd",
      "outputs": [
        {
          "internalType": "uint256",
          "name": "",
          "type": "uint256"
        }
      ],
      "stateMutability": "view",
      "type": "function"
    },
    {
      "inputs": [],
      "name": "votingStart",
      "outputs": [
        {
          "internalType": "uint256",
          "name": "",
          "type": "uint256"
        }
      ],
      "stateMutability": "view",
      "type": "function"
    }
  ],
  "bytecode": "0x60806040523480156200001157600080fd5b506040516200229f3803806200229f83398181016040528101906200003791906200011c565b600082116200007d576040517f08c379a00000000000000000000000000000000000000000000000000000000081526004016200007490620001c5565b60405180910390fd5b806000806101000a81548173ffffffffffffffffffffffffffffffffffffffff021916908373ffffffffffffffffffffffffffffffffffffffff16021790555042600581905550603c82620000d3919062000255565b42620000e09190620001f8565b600681905550505062000357565b600081519050620000ff8162000323565b92915050565b60008151905062000116816200033d565b92915050565b600080604083850312156200013057600080fd5b6000620001408582860162000105565b92505060206200015385828601620000ee565b9150509250929050565b60006200016c602983620001e7565b91507f566f74696e67206475726174696f6e206d75737420626520677265617465722060008301527f7468616e207a65726f00000000000000000000000000000000000000000000006020830152604082019050919050565b60006020820190508181036000830152620001e0816200015d565b9050919050565b600082825260208201905092915050565b60006200020582620002ea565b91506200021283620002ea565b9250827fffffffffffffffffffffffffffffffffffffffffffffffffffffffffffffffff038211156200024a5762000249620002f4565b5b828201905092915050565b60006200026282620002ea565b91506200026f83620002ea565b9250817fffffffffffffffffffffffffffffffffffffffffffffffffffffffffffffffff0483118215151615620002ab57620002aa620002f4565b5b828202905092915050565b6000620002c382620002ca565b9050919050565b600073ffffffffffffffffffffffffffffffffffffffff82169050919050565b6000819050919050565b7f4e487b7100000000000000000000000000000000000000000000000000000000600052601160045260246000fd5b6200032e81620002b6565b81146200033a57600080fd5b50565b6200034881620002ea565b81146200035457600080fd5b50565b611f3880620003676000396000f3fe608060405234801561001057600080fd5b50600436106101375760003560e01c806385a38635116100b8578063e661ea5f1161007c578063e661ea5f14610335578063e74f925214610351578063efb98bcf1461036d578063f2dc48f01461038b578063f851a440146103bb578063fa7f1bae146103d957610137565b806385a3863514610279578063a0d0352614610297578063a3ec138d146102c7578063a9be654a146102f9578063b6db75a01461031757610137565b80633477ee2e116100ff5780633477ee2e146101d057806335bbe70e14610203578063581c281c146102215780635bcfadb51461023f5780635f5300ff1461025b57610137565b80630121b93f1461013c578063101158af146101585780631684eb41146101765780632e6997fe1461019457806330a56347146101b2575b600080fd5b61015660048036038101906101519190611489565b6103f7565b005b61016061065f565b60405161016d9190611b32565b60405180910390f35b61017e610665565b60405161018b91906119a6565b60405180910390f35b61019c6106b9565b6040516101a99190611962565b60405180910390f35b6101ba610850565b6040516101c79190611b32565b60405180910390f35b6101ea60048036038101906101e59190611489565b61085d565b6040516101fa94939291906119ff565b60405180910390f35b61020b6109ad565b6040516102189190611984565b60405180910390f35b610229610c06565b60405161023691906119a6565b60405180910390f35b61025960048036038101906102549190611489565b610c15565b005b610263610cc4565b6040516102709190611b32565b60405180910390f35b610281610cca565b60405161028e9190611b32565b60405180910390f35b6102b160048036038101906102ac919061138d565b610cd0565b6040516102be91906119a6565b60405180910390f35b6102e160048036038101906102dc919061138d565b610cf0565b6040516102f0939291906119c1565b60405180910390f35b610301610daf565b60405161030e9190611b32565b60405180910390f35b61031f610db9565b60405161032c91906119a6565b60405180910390f35b61034f600480360381019061034a91906113b6565b610e10565b005b61036b6004803603810190610366919061140a565b61101b565b005b61037561114b565b6040516103829190611b32565b60405180910390f35b6103a560048036038101906103a09190611489565b6111b8565b6040516103b29190611947565b60405180910390f35b6103c36111f7565b6040516103d09190611947565b60405180910390f35b6103e161121b565b6040516103ee91906119a6565b60405180910390f35b600260003373ffffffffffffffffffffffffffffffffffffffff1673ffffffffffffffffffffffffffffffffffffffff16815260200190815260200160002060009054906101000a900460ff16610483576040517f08c379a000000000000000000000000000000000000000000000000000000000815260040161047a90611a72565b60405180910390fd5b61048b61121b565b6104ca576040517f08c379a00000000000000000000000000000000000000000000000000000000081526004016104c190611ad2565b60405180910390fd5b600160003373ffffffffffffffffffffffffffffffffffffffff1673ffffffffffffffffffffffffffffffffffffffff16815260200190815260200160002060020160009054906101000a900460ff161561055a576040517f08c379a000000000000000000000000000000000000000000000000000000000815260040161055190611b12565b60405180910390fd5b60038054905081106105a1576040517f08c379a000000000000000000000000000000000000000000000000000000000815260040161059890611ab2565b60405180910390fd5b600381815481106105db577f4e487b7100000000000000000000000000000000000000000000000000000000600052603260045260246000fd5b906000526020600020906004020160030160008154809291906105fd90611ded565b919050555060018060003373ffffffffffffffffffffffffffffffffffffffff1673ffffffffffffffffffffffffffffffffffffffff16815260200190815260200160002060020160006101000a81548160ff02191690831515021790555050565b60055481565b6000600260003373ffffffffffffffffffffffffffffffffffffffff1673ffffffffffffffffffffffffffffffffffffffff16815260200190815260200160002060009054906101000a900460ff16905090565b60606003805480602002602001604051908101604052809291908181526020016000905b82821015610847578382906000526020600020906004020160405180608001604052908160008201805461071090611dbb565b80601f016020809104026020016040519081016040528092919081815260200182805461073c90611dbb565b80156107895780601f1061075e57610100808354040283529160200191610789565b820191906000526020600020905b81548152906001019060200180831161076c57829003601f168201915b50505050508152602001600182015481526020016002820180546107ac90611dbb565b80601f01602080910402602001604051908101604052809291908181526020018280546107d890611dbb565b80156108255780601f106107fa57610100808354040283529160200191610825565b820191906000526020600020905b81548152906001019060200180831161080857829003601f168201915b50505050508152602001600382015481525050815260200190600101906106dd565b50505050905090565b6000600380549050905090565b6003818154811061086d57600080fd5b906000526020600020906004020160009150905080600001805461089090611dbb565b80601f01602080910402602001604051908101604052809291908181526020018280546108bc90611dbb565b80156109095780601f106108de57610100808354040283529160200191610909565b820191906000526020600020905b8154815290600101906020018083116108ec57829003601f168201915b50505050509080600101549080600201805461092490611dbb565b80601f016020809104026020016040519081016040528092919081815260200182805461095090611dbb565b801561099d5780601f106109725761010080835404028352916020019161099d565b820191906000526020600020905b81548152906001019060200180831161098057829003601f168201915b5050505050908060030154905084565b6060600060075467ffffffffffffffff8111156109f3577f4e487b7100000000000000000000000000000000000000000000000000000000600052604160045260246000fd5b604051908082528060200260200182016040528015610a2c57816020015b610a19611235565b815260200190600190039081610a115790505b50905060005b600754811015610bfe57600060048281548110610a78577f4e487b7100000000000000000000000000000000000000000000000000000000600052603260045260246000fd5b9060005260206000200160009054906101000a900473ffffffffffffffffffffffffffffffffffffffff169050600160008273ffffffffffffffffffffffffffffffffffffffff1673ffffffffffffffffffffffffffffffffffffffff168152602001908152602001600020604051806060016040529081600082018054610aff90611dbb565b80601f0160208091040260200160405190810160405280929190818152602001828054610b2b90611dbb565b8015610b785780601f10610b4d57610100808354040283529160200191610b78565b820191906000526020600020905b815481529060010190602001808311610b5b57829003601f168201915b50505050508152602001600182015481526020016002820160009054906101000a900460ff161515151581525050838381518110610bdf577f4e487b7100000000000000000000000000000000000000000000000000000000600052603260045260246000fd5b6020026020010181905250508080610bf690611ded565b915050610a32565b508091505090565b6000610c1061121b565b905090565b60008054906101000a900473ffffffffffffffffffffffffffffffffffffffff1673ffffffffffffffffffffffffffffffffffffffff163373ffffffffffffffffffffffffffffffffffffffff1614610ca3576040517f08c379a0000000000000000000000000000000000000000000000000000000008152600401610c9a90611a52565b60405180910390fd5b603c81610cb09190611ca3565b42610cbb9190611c4d565b60068190555050565b60075481565b60065481565b60026020528060005260406000206000915054906101000a900460ff1681565b6001602052806000526040600020600091509050806000018054610d1390611dbb565b80601f0160208091040260200160405190810160405280929190818152602001828054610d3f90611dbb565b8015610d8c5780601f10610d6157610100808354040283529160200191610d8c565b820191906000526020600020905b815481529060010190602001808311610d6f57829003601f168201915b5050505050908060010154908060020160009054906101000a900460ff16905083565b6000600754905090565b60008060009054906101000a900473ffffffffffffffffffffffffffffffffffffffff1673ffffffffffffffffffffffffffffffffffffffff163373ffffffffffffffffffffffffffffffffffffffff1614905090565b600260003373ffffffffffffffffffffffffffffffffffffffff1673ffffffffffffffffffffffffffffffffffffffff16815260200190815260200160002060009054906101000a900460ff1615610e9d576040517f08c379a0000000000000000000000000000000000000000000000000000000008152600401610e9490611af2565b60405180910390fd5b604051806060016040528083815260200182815260200160001515815250600160003373ffffffffffffffffffffffffffffffffffffffff1673ffffffffffffffffffffffffffffffffffffffff1681526020019081526020016000206000820151816000019080519060200190610f16929190611258565b506020820151816001015560408201518160020160006101000a81548160ff0219169083151502179055509050506001600260003373ffffffffffffffffffffffffffffffffffffffff1673ffffffffffffffffffffffffffffffffffffffff16815260200190815260200160002060006101000a81548160ff0219169083151502179055506004339080600181540180825580915050600190039060005260206000200160009091909190916101000a81548173ffffffffffffffffffffffffffffffffffffffff021916908373ffffffffffffffffffffffffffffffffffffffff1602179055506007600081548092919061101290611ded565b91905055505050565b60008054906101000a900473ffffffffffffffffffffffffffffffffffffffff1673ffffffffffffffffffffffffffffffffffffffff163373ffffffffffffffffffffffffffffffffffffffff16146110a9576040517f08c379a00000000000000000000000000000000000000000000000000000000081526004016110a090611a52565b60405180910390fd5b60036040518060800160405280858152602001848152602001838152602001600081525090806001815401808255809150506001900390600052602060002090600402016000909190919091506000820151816000019080519060200190611112929190611258565b50602082015181600101556040820151816002019080519060200190611139929190611258565b50606082015181600301555050505050565b6000600554421015611192576040517f08c379a000000000000000000000000000000000000000000000000000000000815260040161118990611a92565b60405180910390fd5b60065442106111a457600090506111b5565b426006546111b29190611cfd565b90505b90565b600481815481106111c857600080fd5b906000526020600020016000915054906101000a900473ffffffffffffffffffffffffffffffffffffffff1681565b60008054906101000a900473ffffffffffffffffffffffffffffffffffffffff1681565b60006005544210158015611230575060065442105b905090565b604051806060016040528060608152602001600081526020016000151581525090565b82805461126490611dbb565b90600052602060002090601f01602090048101928261128657600085556112cd565b82601f1061129f57805160ff19168380011785556112cd565b828001600101855582156112cd579182015b828111156112cc5782518255916020019190600101906112b1565b5b5090506112da91906112de565b5090565b5b808211156112f75760008160009055506001016112df565b5090565b600061130e61130984611b7e565b611b4d565b90508281526020810184848401111561132657600080fd5b611331848285611d79565b509392505050565b60008135905061134881611ed4565b92915050565b600082601f83011261135f57600080fd5b813561136f8482602086016112fb565b91505092915050565b60008135905061138781611eeb565b92915050565b60006020828403121561139f57600080fd5b60006113ad84828501611339565b91505092915050565b600080604083850312156113c957600080fd5b600083013567ffffffffffffffff8111156113e357600080fd5b6113ef8582860161134e565b925050602061140085828601611378565b9150509250929050565b60008060006060848603121561141f57600080fd5b600084013567ffffffffffffffff81111561143957600080fd5b6114458682870161134e565b935050602061145686828701611378565b925050604084013567ffffffffffffffff81111561147357600080fd5b61147f8682870161134e565b9150509250925092565b60006020828403121561149b57600080fd5b60006114a984828501611378565b91505092915050565b60006114be838361186f565b905092915050565b60006114d283836118d9565b905092915050565b6114e381611d31565b82525050565b60006114f482611bce565b6114fe8185611c09565b93508360208202850161151085611bae565b8060005b8581101561154c578484038952815161152d85826114b2565b945061153883611bef565b925060208a01995050600181019050611514565b50829750879550505050505092915050565b600061156982611bd9565b6115738185611c1a565b93508360208202850161158585611bbe565b8060005b858110156115c157848403895281516115a285826114c6565b94506115ad83611bfc565b925060208a01995050600181019050611589565b50829750879550505050505092915050565b6115dc81611d43565b82525050565b6115eb81611d43565b82525050565b60006115fc82611be4565b6116068185611c2b565b9350611616818560208601611d88565b61161f81611ec3565b840191505092915050565b600061163582611be4565b61163f8185611c3c565b935061164f818560208601611d88565b61165881611ec3565b840191505092915050565b6000611670602583611c3c565b91507f4f6e6c79207468652061646d696e2063616e2063616c6c20746869732066756e60008301527f6374696f6e0000000000000000000000000000000000000000000000000000006020830152604082019050919050565b60006116d6602d83611c3c565b91507f4f6e6c79207265676973746572656420766f746572732063616e2063616c6c2060008301527f746869732066756e6374696f6e000000000000000000000000000000000000006020830152604082019050919050565b600061173c601a83611c3c565b91507f566f74696e6720686173206e6f742073746172746564207965740000000000006000830152602082019050919050565b600061177c601783611c3c565b91507f496e76616c69642063616e64696461746520696e6465780000000000000000006000830152602082019050919050565b60006117bc601c83611c3c565b91507f566f74696e67206973206e6f742063757272656e746c79206f70656e000000006000830152602082019050919050565b60006117fc601b83611c3c565b91507f566f74657220697320616c7265616479207265676973746572656400000000006000830152602082019050919050565b600061183c601683611c3c565b91507f596f75206861766520616c726561647920766f746564000000000000000000006000830152602082019050919050565b6000608083016000830151848203600086015261188c82826115f1565b91505060208301516118a16020860182611929565b50604083015184820360408601526118b982826115f1565b91505060608301516118ce6060860182611929565b508091505092915050565b600060608301600083015184820360008601526118f682826115f1565b915050602083015161190b6020860182611929565b50604083015161191e60408601826115d3565b508091505092915050565b61193281611d6f565b82525050565b61194181611d6f565b82525050565b600060208201905061195c60008301846114da565b92915050565b6000602082019050818103600083015261197c81846114e9565b905092915050565b6000602082019050818103600083015261199e818461155e565b905092915050565b60006020820190506119bb60008301846115e2565b92915050565b600060608201905081810360008301526119db818661162a565b90506119ea6020830185611938565b6119f760408301846115e2565b949350505050565b60006080820190508181036000830152611a19818761162a565b9050611a286020830186611938565b8181036040830152611a3a818561162a565b9050611a496060830184611938565b95945050505050565b60006020820190508181036000830152611a6b81611663565b9050919050565b60006020820190508181036000830152611a8b816116c9565b9050919050565b60006020820190508181036000830152611aab8161172f565b9050919050565b60006020820190508181036000830152611acb8161176f565b9050919050565b60006020820190508181036000830152611aeb816117af565b9050919050565b60006020820190508181036000830152611b0b816117ef565b9050919050565b60006020820190508181036000830152611b2b8161182f565b9050919050565b6000602082019050611b476000830184611938565b92915050565b6000604051905081810181811067ffffffffffffffff82111715611b7457611b73611e94565b5b8060405250919050565b600067ffffffffffffffff821115611b9957611b98611e94565b5b601f19601f8301169050602081019050919050565b6000819050602082019050919050565b6000819050602082019050919050565b600081519050919050565b600081519050919050565b600081519050919050565b6000602082019050919050565b6000602082019050919050565b600082825260208201905092915050565b600082825260208201905092915050565b600082825260208201905092915050565b600082825260208201905092915050565b6000611c5882611d6f565b9150611c6383611d6f565b9250827fffffffffffffffffffffffffffffffffffffffffffffffffffffffffffffffff03821115611c9857611c97611e36565b5b828201905092915050565b6000611cae82611d6f565b9150611cb983611d6f565b9250817fffffffffffffffffffffffffffffffffffffffffffffffffffffffffffffffff0483118215151615611cf257611cf1611e36565b5b828202905092915050565b6000611d0882611d6f565b9150611d1383611d6f565b925082821015611d2657611d25611e36565b5b828203905092915050565b6000611d3c82611d4f565b9050919050565b60008115159050919050565b600073ffffffffffffffffffffffffffffffffffffffff82169050919050565b6000819050919050565b82818337600083830152505050565b60005b83811015611da6578082015181840152602081019050611d8b565b83811115611db5576000848401525b50505050565b60006002820490506001821680611dd357607f821691505b60208210811415611de757611de6611e65565b5b50919050565b6000611df882611d6f565b91507fffffffffffffffffffffffffffffffffffffffffffffffffffffffffffffffff821415611e2b57611e2a611e36565b5b600182019050919050565b7f4e487b7100000000000000000000000000000000000000000000000000000000600052601160045260246000fd5b7f4e487b7100000000000000000000000000000000000000000000000000000000600052602260045260246000fd5b7f4e487b7100000000000000000000000000000000000000000000000000000000600052604160045260246000fd5b6000601f19601f8301169050919050565b611edd81611d31565b8114611ee857600080fd5b50565b611ef481611d6f565b8114611eff57600080fd5b5056fea2646970667358221220a6a52929cce1a912b24c1d5eb3809da2632894ec533267783bd5813599e6929564736f6c63430008000033",
  "linkReferences": {},
  "deployedLinkReferences": {}
}