{
  "_format": "hh-sol-artifact-1",
  "contractName": "Voting",
  "sourceName": "contracts/Voting.sol",
  "abi": [
    {
      "inputs": [
        {
          "internalType": "uint256",
          "name": "_durationInMinutes",
          "type": "uint256"
        }
      ],
      "stateMutability": "nonpayable",
      "type": "constructor"
    },
    {
      "inputs": [
        {
          "internalType": "string",
          "name": "_name",
          "type": "string"
        },
        {
          "internalType": "uint256",
          "name": "_age",
          "type": "uint256"
        },
        {
          "internalType": "string",
          "name": "_candidateAddress",
          "type": "string"
        }
      ],
      "name": "addCandidate",
      "outputs": [],
      "stateMutability": "nonpayable",
      "type": "function"
    },
    {
      "inputs": [],
      "name": "admin",
      "outputs": [
        {
          "internalType": "address",
          "name": "",
          "type": "address"
        }
      ],
      "stateMutability": "view",
      "type": "function"
    },
    {
      "inputs": [
        {
          "internalType": "uint256",
          "name": "",
          "type": "uint256"
        }
      ],
      "name": "candidates",
      "outputs": [
        {
          "internalType": "string",
          "name": "name",
          "type": "string"
        },
        {
          "internalType": "uint256",
          "name": "age",
          "type": "uint256"
        },
        {
          "internalType": "string",
          "name": "candidateAddress",
          "type": "string"
        },
        {
          "internalType": "uint256",
          "name": "voteCount",
          "type": "uint256"
        }
      ],
      "stateMutability": "view",
      "type": "function"
    },
    {
      "inputs": [],
      "name": "getAllCandidates",
      "outputs": [
        {
          "components": [
            {
              "internalType": "string",
              "name": "name",
              "type": "string"
            },
            {
              "internalType": "uint256",
              "name": "age",
              "type": "uint256"
            },
            {
              "internalType": "string",
              "name": "candidateAddress",
              "type": "string"
            },
            {
              "internalType": "uint256",
              "name": "voteCount",
              "type": "uint256"
            }
          ],
          "internalType": "struct Voting.Candidate[]",
          "name": "",
          "type": "tuple[]"
        }
      ],
      "stateMutability": "view",
      "type": "function"
    },
    {
      "inputs": [],
      "name": "getAllVoters",
      "outputs": [
        {
          "components": [
            {
              "internalType": "string",
              "name": "name",
              "type": "string"
            },
            {
              "internalType": "uint256",
              "name": "age",
              "type": "uint256"
            },
            {
              "internalType": "bool",
              "name": "hasVoted",
              "type": "bool"
            }
          ],
          "internalType": "struct Voting.Voter[]",
          "name": "",
          "type": "tuple[]"
        }
      ],
      "stateMutability": "view",
      "type": "function"
    },
    {
      "inputs": [],
      "name": "getCandidateCount",
      "outputs": [
        {
          "internalType": "uint256",
          "name": "",
          "type": "uint256"
        }
      ],
      "stateMutability": "view",
      "type": "function"
    },
    {
      "inputs": [],
      "name": "getRemainingTime",
      "outputs": [
        {
          "internalType": "uint256",
          "name": "",
          "type": "uint256"
        }
      ],
      "stateMutability": "view",
      "type": "function"
    },
    {
      "inputs": [],
      "name": "getVotingStatus",
      "outputs": [
        {
          "internalType": "bool",
          "name": "",
          "type": "bool"
        }
      ],
      "stateMutability": "view",
      "type": "function"
    },
    {
      "inputs": [
        {
          "internalType": "address",
          "name": "",
          "type": "address"
        }
      ],
      "name": "hasRegistered",
      "outputs": [
        {
          "internalType": "bool",
          "name": "",
          "type": "bool"
        }
      ],
      "stateMutability": "view",
      "type": "function"
    },
    {
      "inputs": [],
      "name": "isRegisteredVoter",
      "outputs": [
        {
          "internalType": "bool",
          "name": "",
          "type": "bool"
        }
      ],
      "stateMutability": "view",
      "type": "function"
    },
    {
      "inputs": [],
      "name": "isVotingOpen",
      "outputs": [
        {
          "internalType": "bool",
          "name": "",
          "type": "bool"
        }
      ],
      "stateMutability": "view",
      "type": "function"
    },
    {
      "inputs": [
        {
          "internalType": "string",
          "name": "_name",
          "type": "string"
        },
        {
          "internalType": "uint256",
          "name": "_age",
          "type": "uint256"
        }
      ],
      "name": "registerVoter",
      "outputs": [],
      "stateMutability": "nonpayable",
      "type": "function"
    },
    {
      "inputs": [
        {
          "internalType": "uint256",
          "name": "_durationInMinutes",
          "type": "uint256"
        }
      ],
      "name": "setVotingDuration",
      "outputs": [],
      "stateMutability": "nonpayable",
      "type": "function"
    },
    {
      "inputs": [],
      "name": "showTotalVoters",
      "outputs": [
        {
          "internalType": "uint256",
          "name": "",
          "type": "uint256"
        }
      ],
      "stateMutability": "view",
      "type": "function"
    },
    {
      "inputs": [],
      "name": "totalVoters",
      "outputs": [
        {
          "internalType": "uint256",
          "name": "",
          "type": "uint256"
        }
      ],
      "stateMutability": "view",
      "type": "function"
    },
    {
      "inputs": [
        {
          "internalType": "uint256",
          "name": "_candidateIndex",
          "type": "uint256"
        }
      ],
      "name": "vote",
      "outputs": [],
      "stateMutability": "nonpayable",
      "type": "function"
    },
    {
      "inputs": [
        {
          "internalType": "address",
          "name": "",
          "type": "address"
        }
      ],
      "name": "voters",
      "outputs": [
        {
          "internalType": "string",
          "name": "name",
          "type": "string"
        },
        {
          "internalType": "uint256",
          "name": "age",
          "type": "uint256"
        },
        {
          "internalType": "bool",
          "name": "hasVoted",
          "type": "bool"
        }
      ],
      "stateMutability": "view",
      "type": "function"
    },
    {
      "inputs": [
        {
          "internalType": "uint256",
          "name": "",
          "type": "uint256"
        }
      ],
      "name": "votersByIndex",
      "outputs": [
        {
          "internalType": "address",
          "name": "",
          "type": "address"
        }
      ],
      "stateMutability": "view",
      "type": "function"
    },
    {
      "inputs": [],
      "name": "votingEnd",
      "outputs": [
        {
          "internalType": "uint256",
          "name": "",
          "type": "uint256"
        }
      ],
      "stateMutability": "view",
      "type": "function"
    },
    {
      "inputs": [],
      "name": "votingStart",
      "outputs": [
        {
          "internalType": "uint256",
          "name": "",
          "type": "uint256"
        }
      ],
      "stateMutability": "view",
      "type": "function"
    }
  ],
  "bytecode": "0x60806040523480156200001157600080fd5b50604051620021a4380380620021a4833981810160405281019062000037919062000104565b600081116200007d576040517f08c379a0000000000000000000000000000000000000000000000000000000008152600401620000749062000198565b60405180910390fd5b336000806101000a81548173ffffffffffffffffffffffffffffffffffffffff021916908373ffffffffffffffffffffffffffffffffffffffff16021790555042600581905550603c81620000d3919062000228565b42620000e09190620001cb565b60068190555050620002dc565b600081519050620000fe81620002c2565b92915050565b6000602082840312156200011757600080fd5b60006200012784828501620000ed565b91505092915050565b60006200013f602983620001ba565b91507f566f74696e67206475726174696f6e206d75737420626520677265617465722060008301527f7468616e207a65726f00000000000000000000000000000000000000000000006020830152604082019050919050565b60006020820190508181036000830152620001b38162000130565b9050919050565b600082825260208201905092915050565b6000620001d88262000289565b9150620001e58362000289565b9250827fffffffffffffffffffffffffffffffffffffffffffffffffffffffffffffffff038211156200021d576200021c62000293565b5b828201905092915050565b6000620002358262000289565b9150620002428362000289565b9250817fffffffffffffffffffffffffffffffffffffffffffffffffffffffffffffffff04831182151516156200027e576200027d62000293565b5b828202905092915050565b6000819050919050565b7f4e487b7100000000000000000000000000000000000000000000000000000000600052601160045260246000fd5b620002cd8162000289565b8114620002d957600080fd5b50565b611eb880620002ec6000396000f3fe608060405234801561001057600080fd5b506004361061012c5760003560e01c806385a38635116100ad578063e74f925211610071578063e74f925214610328578063efb98bcf14610344578063f2dc48f014610362578063f851a44014610392578063fa7f1bae146103b05761012c565b806385a386351461026e578063a0d035261461028c578063a3ec138d146102bc578063a9be654a146102ee578063e661ea5f1461030c5761012c565b80633477ee2e116100f45780633477ee2e146101c557806335bbe70e146101f8578063581c281c146102165780635bcfadb5146102345780635f5300ff146102505761012c565b80630121b93f14610131578063101158af1461014d5780631684eb411461016b5780632e6997fe1461018957806330a56347146101a7575b600080fd5b61014b60048036038101906101469190611409565b6103ce565b005b610155610636565b6040516101629190611ab2565b60405180910390f35b61017361063c565b6040516101809190611926565b60405180910390f35b610191610690565b60405161019e91906118e2565b60405180910390f35b6101af610827565b6040516101bc9190611ab2565b60405180910390f35b6101df60048036038101906101da9190611409565b610834565b6040516101ef949392919061197f565b60405180910390f35b610200610984565b60405161020d9190611904565b60405180910390f35b61021e610bdd565b60405161022b9190611926565b60405180910390f35b61024e60048036038101906102499190611409565b610bec565b005b610258610c9b565b6040516102659190611ab2565b60405180910390f35b610276610ca1565b6040516102839190611ab2565b60405180910390f35b6102a660048036038101906102a1919061130d565b610ca7565b6040516102b39190611926565b60405180910390f35b6102d660048036038101906102d1919061130d565b610cc7565b6040516102e593929190611941565b60405180910390f35b6102f6610d86565b6040516103039190611ab2565b60405180910390f35b61032660048036038101906103219190611336565b610d90565b005b610342600480360381019061033d919061138a565b610f9b565b005b61034c6110cb565b6040516103599190611ab2565b60405180910390f35b61037c60048036038101906103779190611409565b611138565b60405161038991906118c7565b60405180910390f35b61039a611177565b6040516103a791906118c7565b60405180910390f35b6103b861119b565b6040516103c59190611926565b60405180910390f35b600260003373ffffffffffffffffffffffffffffffffffffffff1673ffffffffffffffffffffffffffffffffffffffff16815260200190815260200160002060009054906101000a900460ff1661045a576040517f08c379a0000000000000000000000000000000000000000000000000000000008152600401610451906119f2565b60405180910390fd5b61046261119b565b6104a1576040517f08c379a000000000000000000000000000000000000000000000000000000000815260040161049890611a52565b60405180910390fd5b600160003373ffffffffffffffffffffffffffffffffffffffff1673ffffffffffffffffffffffffffffffffffffffff16815260200190815260200160002060020160009054906101000a900460ff1615610531576040517f08c379a000000000000000000000000000000000000000000000000000000000815260040161052890611a92565b60405180910390fd5b6003805490508110610578576040517f08c379a000000000000000000000000000000000000000000000000000000000815260040161056f90611a32565b60405180910390fd5b600381815481106105b2577f4e487b7100000000000000000000000000000000000000000000000000000000600052603260045260246000fd5b906000526020600020906004020160030160008154809291906105d490611d6d565b919050555060018060003373ffffffffffffffffffffffffffffffffffffffff1673ffffffffffffffffffffffffffffffffffffffff16815260200190815260200160002060020160006101000a81548160ff02191690831515021790555050565b60055481565b6000600260003373ffffffffffffffffffffffffffffffffffffffff1673ffffffffffffffffffffffffffffffffffffffff16815260200190815260200160002060009054906101000a900460ff16905090565b60606003805480602002602001604051908101604052809291908181526020016000905b8282101561081e57838290600052602060002090600402016040518060800160405290816000820180546106e790611d3b565b80601f016020809104026020016040519081016040528092919081815260200182805461071390611d3b565b80156107605780601f1061073557610100808354040283529160200191610760565b820191906000526020600020905b81548152906001019060200180831161074357829003601f168201915b505050505081526020016001820154815260200160028201805461078390611d3b565b80601f01602080910402602001604051908101604052809291908181526020018280546107af90611d3b565b80156107fc5780601f106107d1576101008083540402835291602001916107fc565b820191906000526020600020905b8154815290600101906020018083116107df57829003601f168201915b50505050508152602001600382015481525050815260200190600101906106b4565b50505050905090565b6000600380549050905090565b6003818154811061084457600080fd5b906000526020600020906004020160009150905080600001805461086790611d3b565b80601f016020809104026020016040519081016040528092919081815260200182805461089390611d3b565b80156108e05780601f106108b5576101008083540402835291602001916108e0565b820191906000526020600020905b8154815290600101906020018083116108c357829003601f168201915b5050505050908060010154908060020180546108fb90611d3b565b80601f016020809104026020016040519081016040528092919081815260200182805461092790611d3b565b80156109745780601f1061094957610100808354040283529160200191610974565b820191906000526020600020905b81548152906001019060200180831161095757829003601f168201915b5050505050908060030154905084565b6060600060075467ffffffffffffffff8111156109ca577f4e487b7100000000000000000000000000000000000000000000000000000000600052604160045260246000fd5b604051908082528060200260200182016040528015610a0357816020015b6109f06111b5565b8152602001906001900390816109e85790505b50905060005b600754811015610bd557600060048281548110610a4f577f4e487b7100000000000000000000000000000000000000000000000000000000600052603260045260246000fd5b9060005260206000200160009054906101000a900473ffffffffffffffffffffffffffffffffffffffff169050600160008273ffffffffffffffffffffffffffffffffffffffff1673ffffffffffffffffffffffffffffffffffffffff168152602001908152602001600020604051806060016040529081600082018054610ad690611d3b565b80601f0160208091040260200160405190810160405280929190818152602001828054610b0290611d3b565b8015610b4f5780601f10610b2457610100808354040283529160200191610b4f565b820191906000526020600020905b815481529060010190602001808311610b3257829003601f168201915b50505050508152602001600182015481526020016002820160009054906101000a900460ff161515151581525050838381518110610bb6577f4e487b7100000000000000000000000000000000000000000000000000000000600052603260045260246000fd5b6020026020010181905250508080610bcd90611d6d565b915050610a09565b508091505090565b6000610be761119b565b905090565b60008054906101000a900473ffffffffffffffffffffffffffffffffffffffff1673ffffffffffffffffffffffffffffffffffffffff163373ffffffffffffffffffffffffffffffffffffffff1614610c7a576040517f08c379a0000000000000000000000000000000000000000000000000000000008152600401610c71906119d2565b60405180910390fd5b603c81610c879190611c23565b42610c929190611bcd565b60068190555050565b60075481565b60065481565b60026020528060005260406000206000915054906101000a900460ff1681565b6001602052806000526040600020600091509050806000018054610cea90611d3b565b80601f0160208091040260200160405190810160405280929190818152602001828054610d1690611d3b565b8015610d635780601f10610d3857610100808354040283529160200191610d63565b820191906000526020600020905b815481529060010190602001808311610d4657829003601f168201915b5050505050908060010154908060020160009054906101000a900460ff16905083565b6000600754905090565b600260003373ffffffffffffffffffffffffffffffffffffffff1673ffffffffffffffffffffffffffffffffffffffff16815260200190815260200160002060009054906101000a900460ff1615610e1d576040517f08c379a0000000000000000000000000000000000000000000000000000000008152600401610e1490611a72565b60405180910390fd5b604051806060016040528083815260200182815260200160001515815250600160003373ffffffffffffffffffffffffffffffffffffffff1673ffffffffffffffffffffffffffffffffffffffff1681526020019081526020016000206000820151816000019080519060200190610e969291906111d8565b506020820151816001015560408201518160020160006101000a81548160ff0219169083151502179055509050506001600260003373ffffffffffffffffffffffffffffffffffffffff1673ffffffffffffffffffffffffffffffffffffffff16815260200190815260200160002060006101000a81548160ff0219169083151502179055506004339080600181540180825580915050600190039060005260206000200160009091909190916101000a81548173ffffffffffffffffffffffffffffffffffffffff021916908373ffffffffffffffffffffffffffffffffffffffff16021790555060076000815480929190610f9290611d6d565b91905055505050565b60008054906101000a900473ffffffffffffffffffffffffffffffffffffffff1673ffffffffffffffffffffffffffffffffffffffff163373ffffffffffffffffffffffffffffffffffffffff1614611029576040517f08c379a0000000000000000000000000000000000000000000000000000000008152600401611020906119d2565b60405180910390fd5b600360405180608001604052808581526020018481526020018381526020016000815250908060018154018082558091505060019003906000526020600020906004020160009091909190915060008201518160000190805190602001906110929291906111d8565b506020820151816001015560408201518160020190805190602001906110b99291906111d8565b50606082015181600301555050505050565b6000600554421015611112576040517f08c379a000000000000000000000000000000000000000000000000000000000815260040161110990611a12565b60405180910390fd5b60065442106111245760009050611135565b426006546111329190611c7d565b90505b90565b6004818154811061114857600080fd5b906000526020600020016000915054906101000a900473ffffffffffffffffffffffffffffffffffffffff1681565b60008054906101000a900473ffffffffffffffffffffffffffffffffffffffff1681565b600060055442101580156111b0575060065442105b905090565b604051806060016040528060608152602001600081526020016000151581525090565b8280546111e490611d3b565b90600052602060002090601f016020900481019282611206576000855561124d565b82601f1061121f57805160ff191683800117855561124d565b8280016001018555821561124d579182015b8281111561124c578251825591602001919060010190611231565b5b50905061125a919061125e565b5090565b5b8082111561127757600081600090555060010161125f565b5090565b600061128e61128984611afe565b611acd565b9050828152602081018484840111156112a657600080fd5b6112b1848285611cf9565b509392505050565b6000813590506112c881611e54565b92915050565b600082601f8301126112df57600080fd5b81356112ef84826020860161127b565b91505092915050565b60008135905061130781611e6b565b92915050565b60006020828403121561131f57600080fd5b600061132d848285016112b9565b91505092915050565b6000806040838503121561134957600080fd5b600083013567ffffffffffffffff81111561136357600080fd5b61136f858286016112ce565b9250506020611380858286016112f8565b9150509250929050565b60008060006060848603121561139f57600080fd5b600084013567ffffffffffffffff8111156113b957600080fd5b6113c5868287016112ce565b93505060206113d6868287016112f8565b925050604084013567ffffffffffffffff8111156113f357600080fd5b6113ff868287016112ce565b9150509250925092565b60006020828403121561141b57600080fd5b6000611429848285016112f8565b91505092915050565b600061143e83836117ef565b905092915050565b60006114528383611859565b905092915050565b61146381611cb1565b82525050565b600061147482611b4e565b61147e8185611b89565b93508360208202850161149085611b2e565b8060005b858110156114cc57848403895281516114ad8582611432565b94506114b883611b6f565b925060208a01995050600181019050611494565b50829750879550505050505092915050565b60006114e982611b59565b6114f38185611b9a565b93508360208202850161150585611b3e565b8060005b8581101561154157848403895281516115228582611446565b945061152d83611b7c565b925060208a01995050600181019050611509565b50829750879550505050505092915050565b61155c81611cc3565b82525050565b61156b81611cc3565b82525050565b600061157c82611b64565b6115868185611bab565b9350611596818560208601611d08565b61159f81611e43565b840191505092915050565b60006115b582611b64565b6115bf8185611bbc565b93506115cf818560208601611d08565b6115d881611e43565b840191505092915050565b60006115f0602583611bbc565b91507f4f6e6c79207468652061646d696e2063616e2063616c6c20746869732066756e60008301527f6374696f6e0000000000000000000000000000000000000000000000000000006020830152604082019050919050565b6000611656602d83611bbc565b91507f4f6e6c79207265676973746572656420766f746572732063616e2063616c6c2060008301527f746869732066756e6374696f6e000000000000000000000000000000000000006020830152604082019050919050565b60006116bc601a83611bbc565b91507f566f74696e6720686173206e6f742073746172746564207965740000000000006000830152602082019050919050565b60006116fc601783611bbc565b91507f496e76616c69642063616e64696461746520696e6465780000000000000000006000830152602082019050919050565b600061173c601c83611bbc565b91507f566f74696e67206973206e6f742063757272656e746c79206f70656e000000006000830152602082019050919050565b600061177c601b83611bbc565b91507f566f74657220697320616c7265616479207265676973746572656400000000006000830152602082019050919050565b60006117bc601683611bbc565b91507f596f75206861766520616c726561647920766f746564000000000000000000006000830152602082019050919050565b6000608083016000830151848203600086015261180c8282611571565b915050602083015161182160208601826118a9565b50604083015184820360408601526118398282611571565b915050606083015161184e60608601826118a9565b508091505092915050565b600060608301600083015184820360008601526118768282611571565b915050602083015161188b60208601826118a9565b50604083015161189e6040860182611553565b508091505092915050565b6118b281611cef565b82525050565b6118c181611cef565b82525050565b60006020820190506118dc600083018461145a565b92915050565b600060208201905081810360008301526118fc8184611469565b905092915050565b6000602082019050818103600083015261191e81846114de565b905092915050565b600060208201905061193b6000830184611562565b92915050565b6000606082019050818103600083015261195b81866115aa565b905061196a60208301856118b8565b6119776040830184611562565b949350505050565b6000608082019050818103600083015261199981876115aa565b90506119a860208301866118b8565b81810360408301526119ba81856115aa565b90506119c960608301846118b8565b95945050505050565b600060208201905081810360008301526119eb816115e3565b9050919050565b60006020820190508181036000830152611a0b81611649565b9050919050565b60006020820190508181036000830152611a2b816116af565b9050919050565b60006020820190508181036000830152611a4b816116ef565b9050919050565b60006020820190508181036000830152611a6b8161172f565b9050919050565b60006020820190508181036000830152611a8b8161176f565b9050919050565b60006020820190508181036000830152611aab816117af565b9050919050565b6000602082019050611ac760008301846118b8565b92915050565b6000604051905081810181811067ffffffffffffffff82111715611af457611af3611e14565b5b8060405250919050565b600067ffffffffffffffff821115611b1957611b18611e14565b5b601f19601f8301169050602081019050919050565b6000819050602082019050919050565b6000819050602082019050919050565b600081519050919050565b600081519050919050565b600081519050919050565b6000602082019050919050565b6000602082019050919050565b600082825260208201905092915050565b600082825260208201905092915050565b600082825260208201905092915050565b600082825260208201905092915050565b6000611bd882611cef565b9150611be383611cef565b9250827fffffffffffffffffffffffffffffffffffffffffffffffffffffffffffffffff03821115611c1857611c17611db6565b5b828201905092915050565b6000611c2e82611cef565b9150611c3983611cef565b9250817fffffffffffffffffffffffffffffffffffffffffffffffffffffffffffffffff0483118215151615611c7257611c71611db6565b5b828202905092915050565b6000611c8882611cef565b9150611c9383611cef565b925082821015611ca657611ca5611db6565b5b828203905092915050565b6000611cbc82611ccf565b9050919050565b60008115159050919050565b600073ffffffffffffffffffffffffffffffffffffffff82169050919050565b6000819050919050565b82818337600083830152505050565b60005b83811015611d26578082015181840152602081019050611d0b565b83811115611d35576000848401525b50505050565b60006002820490506001821680611d5357607f821691505b60208210811415611d6757611d66611de5565b5b50919050565b6000611d7882611cef565b91507fffffffffffffffffffffffffffffffffffffffffffffffffffffffffffffffff821415611dab57611daa611db6565b5b600182019050919050565b7f4e487b7100000000000000000000000000000000000000000000000000000000600052601160045260246000fd5b7f4e487b7100000000000000000000000000000000000000000000000000000000600052602260045260246000fd5b7f4e487b7100000000000000000000000000000000000000000000000000000000600052604160045260246000fd5b6000601f19601f8301169050919050565b611e5d81611cb1565b8114611e6857600080fd5b50565b611e7481611cef565b8114611e7f57600080fd5b5056fea26469706673582212205a45d1bb5612b409aadb681cef066086690a709113e9956e1242683079f04a8b64736f6c63430008000033",
  "linkReferences": {},
  "deployedLinkReferences": {}
}