{
  "_format": "hh-sol-artifact-1",
  "contractName": "Voting",
  "sourceName": "contracts/Voting.sol",
  "abi": [
    {
      "inputs": [
        {
          "internalType": "uint256",
          "name": "_durationInMinutes",
          "type": "uint256"
        },
        {
          "internalType": "address",
          "name": "_admin",
          "type": "address"
        }
      ],
      "stateMutability": "nonpayable",
      "type": "constructor"
    },
    {
      "inputs": [
        {
          "internalType": "string",
          "name": "_name",
          "type": "string"
        },
        {
          "internalType": "uint256",
          "name": "_age",
          "type": "uint256"
        },
        {
          "internalType": "string",
          "name": "_party",
          "type": "string"
        },
        {
          "internalType": "string",
          "name": "_candidateAddress",
          "type": "string"
        }
      ],
      "name": "addCandidate",
      "outputs": [],
      "stateMutability": "nonpayable",
      "type": "function"
    },
    {
      "inputs": [],
      "name": "admin",
      "outputs": [
        {
          "internalType": "address",
          "name": "",
          "type": "address"
        }
      ],
      "stateMutability": "view",
      "type": "function"
    },
    {
      "inputs": [
        {
          "internalType": "uint256",
          "name": "",
          "type": "uint256"
        }
      ],
      "name": "candidates",
      "outputs": [
        {
          "internalType": "string",
          "name": "name",
          "type": "string"
        },
        {
          "internalType": "uint256",
          "name": "age",
          "type": "uint256"
        },
        {
          "internalType": "string",
          "name": "candidateAddress",
          "type": "string"
        },
        {
          "internalType": "string",
          "name": "party",
          "type": "string"
        },
        {
          "internalType": "uint256",
          "name": "voteCount",
          "type": "uint256"
        }
      ],
      "stateMutability": "view",
      "type": "function"
    },
    {
      "inputs": [],
      "name": "declareResult",
      "outputs": [],
      "stateMutability": "nonpayable",
      "type": "function"
    },
    {
      "inputs": [],
      "name": "endVoting",
      "outputs": [],
      "stateMutability": "nonpayable",
      "type": "function"
    },
    {
      "inputs": [],
      "name": "getAllCandidates",
      "outputs": [
        {
          "components": [
            {
              "internalType": "string",
              "name": "name",
              "type": "string"
            },
            {
              "internalType": "uint256",
              "name": "age",
              "type": "uint256"
            },
            {
              "internalType": "string",
              "name": "candidateAddress",
              "type": "string"
            },
            {
              "internalType": "string",
              "name": "party",
              "type": "string"
            },
            {
              "internalType": "uint256",
              "name": "voteCount",
              "type": "uint256"
            }
          ],
          "internalType": "struct Voting.Candidate[]",
          "name": "",
          "type": "tuple[]"
        }
      ],
      "stateMutability": "view",
      "type": "function"
    },
    {
      "inputs": [],
      "name": "getAllVoters",
      "outputs": [
        {
          "components": [
            {
              "internalType": "string",
              "name": "name",
              "type": "string"
            },
            {
              "internalType": "uint256",
              "name": "age",
              "type": "uint256"
            },
            {
              "internalType": "bool",
              "name": "hasVoted",
              "type": "bool"
            }
          ],
          "internalType": "struct Voting.Voter[]",
          "name": "",
          "type": "tuple[]"
        }
      ],
      "stateMutability": "view",
      "type": "function"
    },
    {
      "inputs": [],
      "name": "getCandidateCount",
      "outputs": [
        {
          "internalType": "uint256",
          "name": "",
          "type": "uint256"
        }
      ],
      "stateMutability": "view",
      "type": "function"
    },
    {
      "inputs": [
        {
          "internalType": "uint256",
          "name": "_index",
          "type": "uint256"
        }
      ],
      "name": "getCandidateWithVotes",
      "outputs": [
        {
          "internalType": "string",
          "name": "",
          "type": "string"
        },
        {
          "internalType": "uint256",
          "name": "",
          "type": "uint256"
        },
        {
          "internalType": "string",
          "name": "",
          "type": "string"
        },
        {
          "internalType": "string",
          "name": "",
          "type": "string"
        },
        {
          "internalType": "uint256",
          "name": "",
          "type": "uint256"
        }
      ],
      "stateMutability": "view",
      "type": "function"
    },
    {
      "inputs": [],
      "name": "getRemainingTime",
      "outputs": [
        {
          "internalType": "uint256",
          "name": "",
          "type": "uint256"
        }
      ],
      "stateMutability": "view",
      "type": "function"
    },
    {
      "inputs": [],
      "name": "getVotingStatus",
      "outputs": [
        {
          "internalType": "bool",
          "name": "",
          "type": "bool"
        }
      ],
      "stateMutability": "view",
      "type": "function"
    },
    {
      "inputs": [
        {
          "internalType": "address",
          "name": "",
          "type": "address"
        }
      ],
      "name": "hasRegistered",
      "outputs": [
        {
          "internalType": "bool",
          "name": "",
          "type": "bool"
        }
      ],
      "stateMutability": "view",
      "type": "function"
    },
    {
      "inputs": [],
      "name": "isAdmin",
      "outputs": [
        {
          "internalType": "bool",
          "name": "",
          "type": "bool"
        }
      ],
      "stateMutability": "view",
      "type": "function"
    },
    {
      "inputs": [],
      "name": "isRegisteredVoter",
      "outputs": [
        {
          "internalType": "bool",
          "name": "",
          "type": "bool"
        }
      ],
      "stateMutability": "view",
      "type": "function"
    },
    {
      "inputs": [],
      "name": "isVotingOpen",
      "outputs": [
        {
          "internalType": "bool",
          "name": "",
          "type": "bool"
        }
      ],
      "stateMutability": "view",
      "type": "function"
    },
    {
      "inputs": [
        {
          "internalType": "string",
          "name": "_name",
          "type": "string"
        },
        {
          "internalType": "uint256",
          "name": "_age",
          "type": "uint256"
        }
      ],
      "name": "registerVoter",
      "outputs": [],
      "stateMutability": "nonpayable",
      "type": "function"
    },
    {
      "inputs": [],
      "name": "showTotalVoters",
      "outputs": [
        {
          "internalType": "uint256",
          "name": "",
          "type": "uint256"
        }
      ],
      "stateMutability": "view",
      "type": "function"
    },
    {
      "inputs": [
        {
          "internalType": "uint256",
          "name": "_durationInMinutes",
          "type": "uint256"
        }
      ],
      "name": "startVoting",
      "outputs": [],
      "stateMutability": "nonpayable",
      "type": "function"
    },
    {
      "inputs": [],
      "name": "totalVoters",
      "outputs": [
        {
          "internalType": "uint256",
          "name": "",
          "type": "uint256"
        }
      ],
      "stateMutability": "view",
      "type": "function"
    },
    {
      "inputs": [
        {
          "internalType": "uint256",
          "name": "_candidateIndex",
          "type": "uint256"
        }
      ],
      "name": "vote",
      "outputs": [],
      "stateMutability": "nonpayable",
      "type": "function"
    },
    {
      "inputs": [
        {
          "internalType": "address",
          "name": "",
          "type": "address"
        }
      ],
      "name": "voters",
      "outputs": [
        {
          "internalType": "string",
          "name": "name",
          "type": "string"
        },
        {
          "internalType": "uint256",
          "name": "age",
          "type": "uint256"
        },
        {
          "internalType": "bool",
          "name": "hasVoted",
          "type": "bool"
        }
      ],
      "stateMutability": "view",
      "type": "function"
    },
    {
      "inputs": [
        {
          "internalType": "uint256",
          "name": "",
          "type": "uint256"
        }
      ],
      "name": "votersByIndex",
      "outputs": [
        {
          "internalType": "address",
          "name": "",
          "type": "address"
        }
      ],
      "stateMutability": "view",
      "type": "function"
    },
    {
      "inputs": [],
      "name": "votingEnd",
      "outputs": [
        {
          "internalType": "uint256",
          "name": "",
          "type": "uint256"
        }
      ],
      "stateMutability": "view",
      "type": "function"
    },
    {
      "inputs": [],
      "name": "votingStart",
      "outputs": [
        {
          "internalType": "uint256",
          "name": "",
          "type": "uint256"
        }
      ],
      "stateMutability": "view",
      "type": "function"
    }
  ],
  "bytecode": "0x60806040523480156200001157600080fd5b5060405162002a0338038062002a03833981810160405281019062000037919062000103565b600082116200007d576040517f08c379a00000000000000000000000000000000000000000000000000000000081526004016200007490620001ac565b60405180910390fd5b806000806101000a81548173ffffffffffffffffffffffffffffffffffffffff021916908373ffffffffffffffffffffffffffffffffffffffff16021790555060006005819055506000600681905550505062000251565b600081519050620000e6816200021d565b92915050565b600081519050620000fd8162000237565b92915050565b600080604083850312156200011757600080fd5b60006200012785828601620000ec565b92505060206200013a85828601620000d5565b9150509250929050565b600062000153602983620001ce565b91507f566f74696e67206475726174696f6e206d75737420626520677265617465722060008301527f7468616e207a65726f00000000000000000000000000000000000000000000006020830152604082019050919050565b60006020820190508181036000830152620001c78162000144565b9050919050565b600082825260208201905092915050565b6000620001ec82620001f3565b9050919050565b600073ffffffffffffffffffffffffffffffffffffffff82169050919050565b6000819050919050565b6200022881620001df565b81146200023457600080fd5b50565b620002428162000213565b81146200024e57600080fd5b50565b6127a280620002616000396000f3fe608060405234801561001057600080fd5b50600436106101585760003560e01c80638574c296116100c3578063c3403ddf1161007c578063c3403ddf146103b1578063e661ea5f146103bb578063efb98bcf146103d7578063f2dc48f0146103f5578063f851a44014610425578063fa7f1bae1461044357610158565b80638574c296146102eb57806385a38635146102f5578063a0d0352614610313578063a3ec138d14610343578063a9be654a14610375578063b6db75a01461039357610158565b80633477ee2e116101155780633477ee2e1461020d57806335bbe70e146102415780633d2f5bda1461025f578063581c281c1461027b5780635f5300ff1461029957806382885e86146102b757610158565b80630121b93f1461015d578063101158af146101795780631684eb41146101975780631c1d3baf146101b55780632e6997fe146101d157806330a56347146101ef575b600080fd5b61017760048036038101906101729190611b58565b610461565b005b6101816106c9565b60405161018e919061239c565b60405180910390f35b61019f6106cf565b6040516101ac919061219b565b60405180910390f35b6101cf60048036038101906101ca9190611aad565b610723565b005b6101d9610877565b6040516101e69190612157565b60405180910390f35b6101f7610aa0565b604051610204919061239c565b60405180910390f35b61022760048036038101906102229190611b58565b610aad565b6040516102389594939291906121f4565b60405180910390f35b610249610c8b565b6040516102569190612179565b60405180910390f35b61027960048036038101906102749190611b58565b610ee4565b005b610283611069565b604051610290919061219b565b60405180910390f35b6102a1611078565b6040516102ae919061239c565b60405180910390f35b6102d160048036038101906102cc9190611b58565b61107e565b6040516102e29594939291906121f4565b60405180910390f35b6102f36112e8565b005b6102fd6113a4565b60405161030a919061239c565b60405180910390f35b61032d60048036038101906103289190611a30565b6113aa565b60405161033a919061219b565b60405180910390f35b61035d60048036038101906103589190611a30565b6113ca565b60405161036c939291906121b6565b60405180910390f35b61037d611489565b60405161038a919061239c565b60405180910390f35b61039b611493565b6040516103a8919061219b565b60405180910390f35b6103b96114ea565b005b6103d560048036038101906103d09190611a59565b61160b565b005b6103df611816565b6040516103ec919061239c565b60405180910390f35b61040f600480360381019061040a9190611b58565b611851565b60405161041c919061213c565b60405180910390f35b61042d611890565b60405161043a919061213c565b60405180910390f35b61044b6118b4565b604051610458919061219b565b60405180910390f35b600260003373ffffffffffffffffffffffffffffffffffffffff1673ffffffffffffffffffffffffffffffffffffffff16815260200190815260200160002060009054906101000a900460ff166104ed576040517f08c379a00000000000000000000000000000000000000000000000000000000081526004016104e49061227c565b60405180910390fd5b6104f56118b4565b610534576040517f08c379a000000000000000000000000000000000000000000000000000000000815260040161052b9061231c565b60405180910390fd5b600160003373ffffffffffffffffffffffffffffffffffffffff1673ffffffffffffffffffffffffffffffffffffffff16815260200190815260200160002060020160009054906101000a900460ff16156105c4576040517f08c379a00000000000000000000000000000000000000000000000000000000081526004016105bb9061235c565b60405180910390fd5b600380549050811061060b576040517f08c379a0000000000000000000000000000000000000000000000000000000008152600401610602906122fc565b60405180910390fd5b60038181548110610645577f4e487b7100000000000000000000000000000000000000000000000000000000600052603260045260246000fd5b9060005260206000209060050201600401600081548092919061066790612657565b919050555060018060003373ffffffffffffffffffffffffffffffffffffffff1673ffffffffffffffffffffffffffffffffffffffff16815260200190815260200160002060020160006101000a81548160ff02191690831515021790555050565b60055481565b6000600260003373ffffffffffffffffffffffffffffffffffffffff1673ffffffffffffffffffffffffffffffffffffffff16815260200190815260200160002060009054906101000a900460ff16905090565b60008054906101000a900473ffffffffffffffffffffffffffffffffffffffff1673ffffffffffffffffffffffffffffffffffffffff163373ffffffffffffffffffffffffffffffffffffffff16146107b1576040517f08c379a00000000000000000000000000000000000000000000000000000000081526004016107a89061225c565b60405180910390fd5b60036040518060a001604052808681526020018581526020018381526020018481526020016000815250908060018154018082558091505060019003906000526020600020906005020160009091909190915060008201518160000190805190602001906108209291906118d8565b506020820151816001015560408201518160020190805190602001906108479291906118d8565b5060608201518160030190805190602001906108649291906118d8565b5060808201518160040155505050505050565b60606003805480602002602001604051908101604052809291908181526020016000905b82821015610a9757838290600052602060002090600502016040518060a00160405290816000820180546108ce90612625565b80601f01602080910402602001604051908101604052809291908181526020018280546108fa90612625565b80156109475780601f1061091c57610100808354040283529160200191610947565b820191906000526020600020905b81548152906001019060200180831161092a57829003601f168201915b505050505081526020016001820154815260200160028201805461096a90612625565b80601f016020809104026020016040519081016040528092919081815260200182805461099690612625565b80156109e35780601f106109b8576101008083540402835291602001916109e3565b820191906000526020600020905b8154815290600101906020018083116109c657829003601f168201915b505050505081526020016003820180546109fc90612625565b80601f0160208091040260200160405190810160405280929190818152602001828054610a2890612625565b8015610a755780601f10610a4a57610100808354040283529160200191610a75565b820191906000526020600020905b815481529060010190602001808311610a5857829003601f168201915b505050505081526020016004820154815250508152602001906001019061089b565b50505050905090565b6000600380549050905090565b60038181548110610abd57600080fd5b9060005260206000209060050201600091509050806000018054610ae090612625565b80601f0160208091040260200160405190810160405280929190818152602001828054610b0c90612625565b8015610b595780601f10610b2e57610100808354040283529160200191610b59565b820191906000526020600020905b815481529060010190602001808311610b3c57829003601f168201915b505050505090806001015490806002018054610b7490612625565b80601f0160208091040260200160405190810160405280929190818152602001828054610ba090612625565b8015610bed5780601f10610bc257610100808354040283529160200191610bed565b820191906000526020600020905b815481529060010190602001808311610bd057829003601f168201915b505050505090806003018054610c0290612625565b80601f0160208091040260200160405190810160405280929190818152602001828054610c2e90612625565b8015610c7b5780601f10610c5057610100808354040283529160200191610c7b565b820191906000526020600020905b815481529060010190602001808311610c5e57829003601f168201915b5050505050908060040154905085565b6060600060075467ffffffffffffffff811115610cd1577f4e487b7100000000000000000000000000000000000000000000000000000000600052604160045260246000fd5b604051908082528060200260200182016040528015610d0a57816020015b610cf761195e565b815260200190600190039081610cef5790505b50905060005b600754811015610edc57600060048281548110610d56577f4e487b7100000000000000000000000000000000000000000000000000000000600052603260045260246000fd5b9060005260206000200160009054906101000a900473ffffffffffffffffffffffffffffffffffffffff169050600160008273ffffffffffffffffffffffffffffffffffffffff1673ffffffffffffffffffffffffffffffffffffffff168152602001908152602001600020604051806060016040529081600082018054610ddd90612625565b80601f0160208091040260200160405190810160405280929190818152602001828054610e0990612625565b8015610e565780601f10610e2b57610100808354040283529160200191610e56565b820191906000526020600020905b815481529060010190602001808311610e3957829003601f168201915b50505050508152602001600182015481526020016002820160009054906101000a900460ff161515151581525050838381518110610ebd577f4e487b7100000000000000000000000000000000000000000000000000000000600052603260045260246000fd5b6020026020010181905250508080610ed490612657565b915050610d10565b508091505090565b60008054906101000a900473ffffffffffffffffffffffffffffffffffffffff1673ffffffffffffffffffffffffffffffffffffffff163373ffffffffffffffffffffffffffffffffffffffff1614610f72576040517f08c379a0000000000000000000000000000000000000000000000000000000008152600401610f699061225c565b60405180910390fd5b600654421015610fb7576040517f08c379a0000000000000000000000000000000000000000000000000000000008152600401610fae906122bc565b60405180910390fd5b42600581905550600060055411611003576040517f08c379a0000000000000000000000000000000000000000000000000000000008152600401610ffa9061229c565b60405180910390fd5b60008111611046576040517f08c379a000000000000000000000000000000000000000000000000000000000815260040161103d906122dc565b60405180910390fd5b603c81611053919061250d565b60055461106091906124b7565b60068190555050565b60006110736118b4565b905090565b60075481565b60606000606080600060038054905086106110ce576040517f08c379a00000000000000000000000000000000000000000000000000000000081526004016110c5906122fc565b60405180910390fd5b60006003878154811061110a577f4e487b7100000000000000000000000000000000000000000000000000000000600052603260045260246000fd5b906000526020600020906005020190508060000181600101548260030183600201846004015484805461113c90612625565b80601f016020809104026020016040519081016040528092919081815260200182805461116890612625565b80156111b55780601f1061118a576101008083540402835291602001916111b5565b820191906000526020600020905b81548152906001019060200180831161119857829003601f168201915b505050505094508280546111c890612625565b80601f01602080910402602001604051908101604052809291908181526020018280546111f490612625565b80156112415780601f1061121657610100808354040283529160200191611241565b820191906000526020600020905b81548152906001019060200180831161122457829003601f168201915b5050505050925081805461125490612625565b80601f016020809104026020016040519081016040528092919081815260200182805461128090612625565b80156112cd5780601f106112a2576101008083540402835291602001916112cd565b820191906000526020600020905b8154815290600101906020018083116112b057829003601f168201915b50505050509150955095509550955095505091939590929450565b60008054906101000a900473ffffffffffffffffffffffffffffffffffffffff1673ffffffffffffffffffffffffffffffffffffffff163373ffffffffffffffffffffffffffffffffffffffff1614611376576040517f08c379a000000000000000000000000000000000000000000000000000000000815260040161136d9061225c565b60405180910390fd5b61137e6114ea565b60005b6003805490508110156113a157808061139990612657565b915050611381565b50565b60065481565b60026020528060005260406000206000915054906101000a900460ff1681565b60016020528060005260406000206000915090508060000180546113ed90612625565b80601f016020809104026020016040519081016040528092919081815260200182805461141990612625565b80156114665780601f1061143b57610100808354040283529160200191611466565b820191906000526020600020905b81548152906001019060200180831161144957829003601f168201915b5050505050908060010154908060020160009054906101000a900460ff16905083565b6000600754905090565b60008060009054906101000a900473ffffffffffffffffffffffffffffffffffffffff1673ffffffffffffffffffffffffffffffffffffffff163373ffffffffffffffffffffffffffffffffffffffff1614905090565b60008054906101000a900473ffffffffffffffffffffffffffffffffffffffff1673ffffffffffffffffffffffffffffffffffffffff163373ffffffffffffffffffffffffffffffffffffffff1614611578576040517f08c379a000000000000000000000000000000000000000000000000000000000815260040161156f9061225c565b60405180910390fd5b6000600554116115bd576040517f08c379a00000000000000000000000000000000000000000000000000000000081526004016115b49061229c565b60405180910390fd5b6006544210611601576040517f08c379a00000000000000000000000000000000000000000000000000000000081526004016115f89061237c565b60405180910390fd5b6116096118ce565b565b600260003373ffffffffffffffffffffffffffffffffffffffff1673ffffffffffffffffffffffffffffffffffffffff16815260200190815260200160002060009054906101000a900460ff1615611698576040517f08c379a000000000000000000000000000000000000000000000000000000000815260040161168f9061233c565b60405180910390fd5b604051806060016040528083815260200182815260200160001515815250600160003373ffffffffffffffffffffffffffffffffffffffff1673ffffffffffffffffffffffffffffffffffffffff16815260200190815260200160002060008201518160000190805190602001906117119291906118d8565b506020820151816001015560408201518160020160006101000a81548160ff0219169083151502179055509050506001600260003373ffffffffffffffffffffffffffffffffffffffff1673ffffffffffffffffffffffffffffffffffffffff16815260200190815260200160002060006101000a81548160ff0219169083151502179055506004339080600181540180825580915050600190039060005260206000200160009091909190916101000a81548173ffffffffffffffffffffffffffffffffffffffff021916908373ffffffffffffffffffffffffffffffffffffffff1602179055506007600081548092919061180d90612657565b91905055505050565b600080600554141561182b576000905061184e565b600654421061183d576000905061184e565b4260065461184b9190612567565b90505b90565b6004818154811061186157600080fd5b906000526020600020016000915054906101000a900473ffffffffffffffffffffffffffffffffffffffff1681565b60008054906101000a900473ffffffffffffffffffffffffffffffffffffffff1681565b600060055442101580156118c9575060065442105b905090565b6000600681905550565b8280546118e490612625565b90600052602060002090601f016020900481019282611906576000855561194d565b82601f1061191f57805160ff191683800117855561194d565b8280016001018555821561194d579182015b8281111561194c578251825591602001919060010190611931565b5b50905061195a9190611981565b5090565b604051806060016040528060608152602001600081526020016000151581525090565b5b8082111561199a576000816000905550600101611982565b5090565b60006119b16119ac846123e8565b6123b7565b9050828152602081018484840111156119c957600080fd5b6119d48482856125e3565b509392505050565b6000813590506119eb8161273e565b92915050565b600082601f830112611a0257600080fd5b8135611a1284826020860161199e565b91505092915050565b600081359050611a2a81612755565b92915050565b600060208284031215611a4257600080fd5b6000611a50848285016119dc565b91505092915050565b60008060408385031215611a6c57600080fd5b600083013567ffffffffffffffff811115611a8657600080fd5b611a92858286016119f1565b9250506020611aa385828601611a1b565b9150509250929050565b60008060008060808587031215611ac357600080fd5b600085013567ffffffffffffffff811115611add57600080fd5b611ae9878288016119f1565b9450506020611afa87828801611a1b565b935050604085013567ffffffffffffffff811115611b1757600080fd5b611b23878288016119f1565b925050606085013567ffffffffffffffff811115611b4057600080fd5b611b4c878288016119f1565b91505092959194509250565b600060208284031215611b6a57600080fd5b6000611b7884828501611a1b565b91505092915050565b6000611b8d838361204a565b905092915050565b6000611ba183836120ce565b905092915050565b611bb28161259b565b82525050565b6000611bc382612438565b611bcd8185612473565b935083602082028501611bdf85612418565b8060005b85811015611c1b5784840389528151611bfc8582611b81565b9450611c0783612459565b925060208a01995050600181019050611be3565b50829750879550505050505092915050565b6000611c3882612443565b611c428185612484565b935083602082028501611c5485612428565b8060005b85811015611c905784840389528151611c718582611b95565b9450611c7c83612466565b925060208a01995050600181019050611c58565b50829750879550505050505092915050565b611cab816125ad565b82525050565b611cba816125ad565b82525050565b6000611ccb8261244e565b611cd58185612495565b9350611ce58185602086016125f2565b611cee8161272d565b840191505092915050565b6000611d048261244e565b611d0e81856124a6565b9350611d1e8185602086016125f2565b611d278161272d565b840191505092915050565b6000611d3f6025836124a6565b91507f4f6e6c79207468652061646d696e2063616e2063616c6c20746869732066756e60008301527f6374696f6e0000000000000000000000000000000000000000000000000000006020830152604082019050919050565b6000611da5602d836124a6565b91507f4f6e6c79207265676973746572656420766f746572732063616e2063616c6c2060008301527f746869732066756e6374696f6e000000000000000000000000000000000000006020830152604082019050919050565b6000611e0b601a836124a6565b91507f566f74696e6720686173206e6f742073746172746564207965740000000000006000830152602082019050919050565b6000611e4b6031836124a6565b91507f566f74696e672066726f6d207468652070726576696f757320706572696f642060008301527f686173206e6f7420656e646564207965740000000000000000000000000000006020830152604082019050919050565b6000611eb16029836124a6565b91507f566f74696e67206475726174696f6e206d75737420626520677265617465722060008301527f7468616e207a65726f00000000000000000000000000000000000000000000006020830152604082019050919050565b6000611f176017836124a6565b91507f496e76616c69642063616e64696461746520696e6465780000000000000000006000830152602082019050919050565b6000611f57601c836124a6565b91507f566f74696e67206973206e6f742063757272656e746c79206f70656e000000006000830152602082019050919050565b6000611f97601b836124a6565b91507f566f74657220697320616c7265616479207265676973746572656400000000006000830152602082019050919050565b6000611fd76016836124a6565b91507f596f75206861766520616c726561647920766f746564000000000000000000006000830152602082019050919050565b60006120176018836124a6565b91507f566f74696e672068617320616c726561647920656e64656400000000000000006000830152602082019050919050565b600060a08301600083015184820360008601526120678282611cc0565b915050602083015161207c602086018261211e565b50604083015184820360408601526120948282611cc0565b915050606083015184820360608601526120ae8282611cc0565b91505060808301516120c3608086018261211e565b508091505092915050565b600060608301600083015184820360008601526120eb8282611cc0565b9150506020830151612100602086018261211e565b5060408301516121136040860182611ca2565b508091505092915050565b612127816125d9565b82525050565b612136816125d9565b82525050565b60006020820190506121516000830184611ba9565b92915050565b600060208201905081810360008301526121718184611bb8565b905092915050565b600060208201905081810360008301526121938184611c2d565b905092915050565b60006020820190506121b06000830184611cb1565b92915050565b600060608201905081810360008301526121d08186611cf9565b90506121df602083018561212d565b6121ec6040830184611cb1565b949350505050565b600060a082019050818103600083015261220e8188611cf9565b905061221d602083018761212d565b818103604083015261222f8186611cf9565b905081810360608301526122438185611cf9565b9050612252608083018461212d565b9695505050505050565b6000602082019050818103600083015261227581611d32565b9050919050565b6000602082019050818103600083015261229581611d98565b9050919050565b600060208201905081810360008301526122b581611dfe565b9050919050565b600060208201905081810360008301526122d581611e3e565b9050919050565b600060208201905081810360008301526122f581611ea4565b9050919050565b6000602082019050818103600083015261231581611f0a565b9050919050565b6000602082019050818103600083015261233581611f4a565b9050919050565b6000602082019050818103600083015261235581611f8a565b9050919050565b6000602082019050818103600083015261237581611fca565b9050919050565b600060208201905081810360008301526123958161200a565b9050919050565b60006020820190506123b1600083018461212d565b92915050565b6000604051905081810181811067ffffffffffffffff821117156123de576123dd6126fe565b5b8060405250919050565b600067ffffffffffffffff821115612403576124026126fe565b5b601f19601f8301169050602081019050919050565b6000819050602082019050919050565b6000819050602082019050919050565b600081519050919050565b600081519050919050565b600081519050919050565b6000602082019050919050565b6000602082019050919050565b600082825260208201905092915050565b600082825260208201905092915050565b600082825260208201905092915050565b600082825260208201905092915050565b60006124c2826125d9565b91506124cd836125d9565b9250827fffffffffffffffffffffffffffffffffffffffffffffffffffffffffffffffff03821115612502576125016126a0565b5b828201905092915050565b6000612518826125d9565b9150612523836125d9565b9250817fffffffffffffffffffffffffffffffffffffffffffffffffffffffffffffffff048311821515161561255c5761255b6126a0565b5b828202905092915050565b6000612572826125d9565b915061257d836125d9565b9250828210156125905761258f6126a0565b5b828203905092915050565b60006125a6826125b9565b9050919050565b60008115159050919050565b600073ffffffffffffffffffffffffffffffffffffffff82169050919050565b6000819050919050565b82818337600083830152505050565b60005b838110156126105780820151818401526020810190506125f5565b8381111561261f576000848401525b50505050565b6000600282049050600182168061263d57607f821691505b60208210811415612651576126506126cf565b5b50919050565b6000612662826125d9565b91507fffffffffffffffffffffffffffffffffffffffffffffffffffffffffffffffff821415612695576126946126a0565b5b600182019050919050565b7f4e487b7100000000000000000000000000000000000000000000000000000000600052601160045260246000fd5b7f4e487b7100000000000000000000000000000000000000000000000000000000600052602260045260246000fd5b7f4e487b7100000000000000000000000000000000000000000000000000000000600052604160045260246000fd5b6000601f19601f8301169050919050565b6127478161259b565b811461275257600080fd5b50565b61275e816125d9565b811461276957600080fd5b5056fea2646970667358221220a1fb3d125e40cc4880804b90ef2c57cc647fa65160c52061b9d49134d0e3f77c64736f6c63430008000033",
  "linkReferences": {},
  "deployedLinkReferences": {}
}