{
  "_format": "hh-sol-artifact-1",
  "contractName": "Voting",
  "sourceName": "contracts/Voting.sol",
  "abi": [
    {
      "inputs": [
        {
          "internalType": "uint256",
          "name": "_durationInMinutes",
          "type": "uint256"
        },
        {
          "internalType": "address",
          "name": "_admin",
          "type": "address"
        }
      ],
      "stateMutability": "nonpayable",
      "type": "constructor"
    },
    {
      "anonymous": false,
      "inputs": [
        {
          "indexed": false,
          "internalType": "string",
          "name": "winnerName",
          "type": "string"
        }
      ],
      "name": "WinnerDeclared",
      "type": "event"
    },
    {
      "inputs": [
        {
          "internalType": "string",
          "name": "_name",
          "type": "string"
        },
        {
          "internalType": "uint256",
          "name": "_age",
          "type": "uint256"
        },
        {
          "internalType": "string",
          "name": "_party",
          "type": "string"
        },
        {
          "internalType": "string",
          "name": "_candidateAddress",
          "type": "string"
        }
      ],
      "name": "addCandidate",
      "outputs": [],
      "stateMutability": "nonpayable",
      "type": "function"
    },
    {
      "inputs": [],
      "name": "admin",
      "outputs": [
        {
          "internalType": "address",
          "name": "",
          "type": "address"
        }
      ],
      "stateMutability": "view",
      "type": "function"
    },
    {
      "inputs": [
        {
          "internalType": "uint256",
          "name": "",
          "type": "uint256"
        }
      ],
      "name": "candidates",
      "outputs": [
        {
          "internalType": "string",
          "name": "name",
          "type": "string"
        },
        {
          "internalType": "uint256",
          "name": "age",
          "type": "uint256"
        },
        {
          "internalType": "string",
          "name": "candidateAddress",
          "type": "string"
        },
        {
          "internalType": "string",
          "name": "party",
          "type": "string"
        },
        {
          "internalType": "uint256",
          "name": "voteCount",
          "type": "uint256"
        }
      ],
      "stateMutability": "view",
      "type": "function"
    },
    {
      "inputs": [],
      "name": "declareResult",
      "outputs": [],
      "stateMutability": "nonpayable",
      "type": "function"
    },
    {
      "inputs": [],
      "name": "endVoting",
      "outputs": [],
      "stateMutability": "nonpayable",
      "type": "function"
    },
    {
      "inputs": [],
      "name": "getAllCandidates",
      "outputs": [
        {
          "components": [
            {
              "internalType": "string",
              "name": "name",
              "type": "string"
            },
            {
              "internalType": "uint256",
              "name": "age",
              "type": "uint256"
            },
            {
              "internalType": "string",
              "name": "candidateAddress",
              "type": "string"
            },
            {
              "internalType": "string",
              "name": "party",
              "type": "string"
            },
            {
              "internalType": "uint256",
              "name": "voteCount",
              "type": "uint256"
            }
          ],
          "internalType": "struct Voting.Candidate[]",
          "name": "",
          "type": "tuple[]"
        }
      ],
      "stateMutability": "view",
      "type": "function"
    },
    {
      "inputs": [],
      "name": "getAllVoters",
      "outputs": [
        {
          "components": [
            {
              "internalType": "string",
              "name": "name",
              "type": "string"
            },
            {
              "internalType": "uint256",
              "name": "age",
              "type": "uint256"
            },
            {
              "internalType": "bool",
              "name": "hasVoted",
              "type": "bool"
            }
          ],
          "internalType": "struct Voting.Voter[]",
          "name": "",
          "type": "tuple[]"
        }
      ],
      "stateMutability": "view",
      "type": "function"
    },
    {
      "inputs": [],
      "name": "getCandidateCount",
      "outputs": [
        {
          "internalType": "uint256",
          "name": "",
          "type": "uint256"
        }
      ],
      "stateMutability": "view",
      "type": "function"
    },
    {
      "inputs": [
        {
          "internalType": "uint256",
          "name": "_index",
          "type": "uint256"
        }
      ],
      "name": "getCandidateWithVotes",
      "outputs": [
        {
          "internalType": "string",
          "name": "",
          "type": "string"
        },
        {
          "internalType": "uint256",
          "name": "",
          "type": "uint256"
        },
        {
          "internalType": "string",
          "name": "",
          "type": "string"
        },
        {
          "internalType": "string",
          "name": "",
          "type": "string"
        },
        {
          "internalType": "uint256",
          "name": "",
          "type": "uint256"
        }
      ],
      "stateMutability": "view",
      "type": "function"
    },
    {
      "inputs": [],
      "name": "getRemainingTime",
      "outputs": [
        {
          "internalType": "uint256",
          "name": "",
          "type": "uint256"
        }
      ],
      "stateMutability": "view",
      "type": "function"
    },
    {
      "inputs": [],
      "name": "getVotingStatus",
      "outputs": [
        {
          "internalType": "bool",
          "name": "",
          "type": "bool"
        }
      ],
      "stateMutability": "view",
      "type": "function"
    },
    {
      "inputs": [
        {
          "internalType": "address",
          "name": "",
          "type": "address"
        }
      ],
      "name": "hasRegistered",
      "outputs": [
        {
          "internalType": "bool",
          "name": "",
          "type": "bool"
        }
      ],
      "stateMutability": "view",
      "type": "function"
    },
    {
      "inputs": [],
      "name": "isAdmin",
      "outputs": [
        {
          "internalType": "bool",
          "name": "",
          "type": "bool"
        }
      ],
      "stateMutability": "view",
      "type": "function"
    },
    {
      "inputs": [],
      "name": "isRegisteredVoter",
      "outputs": [
        {
          "internalType": "bool",
          "name": "",
          "type": "bool"
        }
      ],
      "stateMutability": "view",
      "type": "function"
    },
    {
      "inputs": [],
      "name": "isVotingOpen",
      "outputs": [
        {
          "internalType": "bool",
          "name": "",
          "type": "bool"
        }
      ],
      "stateMutability": "view",
      "type": "function"
    },
    {
      "inputs": [
        {
          "internalType": "string",
          "name": "_name",
          "type": "string"
        },
        {
          "internalType": "uint256",
          "name": "_age",
          "type": "uint256"
        }
      ],
      "name": "registerVoter",
      "outputs": [],
      "stateMutability": "nonpayable",
      "type": "function"
    },
    {
      "inputs": [],
      "name": "showTotalVoters",
      "outputs": [
        {
          "internalType": "uint256",
          "name": "",
          "type": "uint256"
        }
      ],
      "stateMutability": "view",
      "type": "function"
    },
    {
      "inputs": [
        {
          "internalType": "uint256",
          "name": "_durationInMinutes",
          "type": "uint256"
        }
      ],
      "name": "startVoting",
      "outputs": [],
      "stateMutability": "nonpayable",
      "type": "function"
    },
    {
      "inputs": [],
      "name": "totalVoters",
      "outputs": [
        {
          "internalType": "uint256",
          "name": "",
          "type": "uint256"
        }
      ],
      "stateMutability": "view",
      "type": "function"
    },
    {
      "inputs": [
        {
          "internalType": "uint256",
          "name": "_candidateIndex",
          "type": "uint256"
        }
      ],
      "name": "vote",
      "outputs": [],
      "stateMutability": "nonpayable",
      "type": "function"
    },
    {
      "inputs": [
        {
          "internalType": "address",
          "name": "",
          "type": "address"
        }
      ],
      "name": "voters",
      "outputs": [
        {
          "internalType": "string",
          "name": "name",
          "type": "string"
        },
        {
          "internalType": "uint256",
          "name": "age",
          "type": "uint256"
        },
        {
          "internalType": "bool",
          "name": "hasVoted",
          "type": "bool"
        }
      ],
      "stateMutability": "view",
      "type": "function"
    },
    {
      "inputs": [
        {
          "internalType": "uint256",
          "name": "",
          "type": "uint256"
        }
      ],
      "name": "votersByIndex",
      "outputs": [
        {
          "internalType": "address",
          "name": "",
          "type": "address"
        }
      ],
      "stateMutability": "view",
      "type": "function"
    },
    {
      "inputs": [],
      "name": "votingEnd",
      "outputs": [
        {
          "internalType": "uint256",
          "name": "",
          "type": "uint256"
        }
      ],
      "stateMutability": "view",
      "type": "function"
    },
    {
      "inputs": [],
      "name": "votingStart",
      "outputs": [
        {
          "internalType": "uint256",
          "name": "",
          "type": "uint256"
        }
      ],
      "stateMutability": "view",
      "type": "function"
    }
  ],
  "bytecode": "0x60806040523480156200001157600080fd5b5060405162002bda38038062002bda833981810160405281019062000037919062000103565b600082116200007d576040517f08c379a00000000000000000000000000000000000000000000000000000000081526004016200007490620001ac565b60405180910390fd5b806000806101000a81548173ffffffffffffffffffffffffffffffffffffffff021916908373ffffffffffffffffffffffffffffffffffffffff16021790555060006005819055506000600681905550505062000251565b600081519050620000e6816200021d565b92915050565b600081519050620000fd8162000237565b92915050565b600080604083850312156200011757600080fd5b60006200012785828601620000ec565b92505060206200013a85828601620000d5565b9150509250929050565b600062000153602983620001ce565b91507f566f74696e67206475726174696f6e206d75737420626520677265617465722060008301527f7468616e207a65726f00000000000000000000000000000000000000000000006020830152604082019050919050565b60006020820190508181036000830152620001c78162000144565b9050919050565b600082825260208201905092915050565b6000620001ec82620001f3565b9050919050565b600073ffffffffffffffffffffffffffffffffffffffff82169050919050565b6000819050919050565b6200022881620001df565b81146200023457600080fd5b50565b620002428162000213565b81146200024e57600080fd5b50565b61297980620002616000396000f3fe608060405234801561001057600080fd5b50600436106101585760003560e01c80638574c296116100c3578063c3403ddf1161007c578063c3403ddf146103b1578063e661ea5f146103bb578063efb98bcf146103d7578063f2dc48f0146103f5578063f851a44014610425578063fa7f1bae1461044357610158565b80638574c296146102eb57806385a38635146102f5578063a0d0352614610313578063a3ec138d14610343578063a9be654a14610375578063b6db75a01461039357610158565b80633477ee2e116101155780633477ee2e1461020d57806335bbe70e146102415780633d2f5bda1461025f578063581c281c1461027b5780635f5300ff1461029957806382885e86146102b757610158565b80630121b93f1461015d578063101158af146101795780631684eb41146101975780631c1d3baf146101b55780632e6997fe146101d157806330a56347146101ef575b600080fd5b61017760048036038101906101729190611d0d565b610461565b005b6101816106c9565b60405161018e9190612573565b60405180910390f35b61019f6106cf565b6040516101ac9190612350565b60405180910390f35b6101cf60048036038101906101ca9190611c62565b610723565b005b6101d9610877565b6040516101e6919061230c565b60405180910390f35b6101f7610aa0565b6040516102049190612573565b60405180910390f35b61022760048036038101906102229190611d0d565b610aad565b6040516102389594939291906123cb565b60405180910390f35b610249610c8b565b604051610256919061232e565b60405180910390f35b61027960048036038101906102749190611d0d565b610ee4565b005b610283611069565b6040516102909190612350565b60405180910390f35b6102a1611078565b6040516102ae9190612573565b60405180910390f35b6102d160048036038101906102cc9190611d0d565b61107e565b6040516102e29594939291906123cb565b60405180910390f35b6102f36112e8565b005b6102fd611559565b60405161030a9190612573565b60405180910390f35b61032d60048036038101906103289190611be5565b61155f565b60405161033a9190612350565b60405180910390f35b61035d60048036038101906103589190611be5565b61157f565b60405161036c9392919061238d565b60405180910390f35b61037d61163e565b60405161038a9190612573565b60405180910390f35b61039b611648565b6040516103a89190612350565b60405180910390f35b6103b961169f565b005b6103d560048036038101906103d09190611c0e565b6117c0565b005b6103df6119cb565b6040516103ec9190612573565b60405180910390f35b61040f600480360381019061040a9190611d0d565b611a06565b60405161041c91906122f1565b60405180910390f35b61042d611a45565b60405161043a91906122f1565b60405180910390f35b61044b611a69565b6040516104589190612350565b60405180910390f35b600260003373ffffffffffffffffffffffffffffffffffffffff1673ffffffffffffffffffffffffffffffffffffffff16815260200190815260200160002060009054906101000a900460ff166104ed576040517f08c379a00000000000000000000000000000000000000000000000000000000081526004016104e490612453565b60405180910390fd5b6104f5611a69565b610534576040517f08c379a000000000000000000000000000000000000000000000000000000000815260040161052b906124f3565b60405180910390fd5b600160003373ffffffffffffffffffffffffffffffffffffffff1673ffffffffffffffffffffffffffffffffffffffff16815260200190815260200160002060020160009054906101000a900460ff16156105c4576040517f08c379a00000000000000000000000000000000000000000000000000000000081526004016105bb90612533565b60405180910390fd5b600380549050811061060b576040517f08c379a0000000000000000000000000000000000000000000000000000000008152600401610602906124d3565b60405180910390fd5b60038181548110610645577f4e487b7100000000000000000000000000000000000000000000000000000000600052603260045260246000fd5b906000526020600020906005020160040160008154809291906106679061282e565b919050555060018060003373ffffffffffffffffffffffffffffffffffffffff1673ffffffffffffffffffffffffffffffffffffffff16815260200190815260200160002060020160006101000a81548160ff02191690831515021790555050565b60055481565b6000600260003373ffffffffffffffffffffffffffffffffffffffff1673ffffffffffffffffffffffffffffffffffffffff16815260200190815260200160002060009054906101000a900460ff16905090565b60008054906101000a900473ffffffffffffffffffffffffffffffffffffffff1673ffffffffffffffffffffffffffffffffffffffff163373ffffffffffffffffffffffffffffffffffffffff16146107b1576040517f08c379a00000000000000000000000000000000000000000000000000000000081526004016107a890612433565b60405180910390fd5b60036040518060a00160405280868152602001858152602001838152602001848152602001600081525090806001815401808255809150506001900390600052602060002090600502016000909190919091506000820151816000019080519060200190610820929190611a8d565b50602082015181600101556040820151816002019080519060200190610847929190611a8d565b506060820151816003019080519060200190610864929190611a8d565b5060808201518160040155505050505050565b60606003805480602002602001604051908101604052809291908181526020016000905b82821015610a9757838290600052602060002090600502016040518060a00160405290816000820180546108ce906127fc565b80601f01602080910402602001604051908101604052809291908181526020018280546108fa906127fc565b80156109475780601f1061091c57610100808354040283529160200191610947565b820191906000526020600020905b81548152906001019060200180831161092a57829003601f168201915b505050505081526020016001820154815260200160028201805461096a906127fc565b80601f0160208091040260200160405190810160405280929190818152602001828054610996906127fc565b80156109e35780601f106109b8576101008083540402835291602001916109e3565b820191906000526020600020905b8154815290600101906020018083116109c657829003601f168201915b505050505081526020016003820180546109fc906127fc565b80601f0160208091040260200160405190810160405280929190818152602001828054610a28906127fc565b8015610a755780601f10610a4a57610100808354040283529160200191610a75565b820191906000526020600020905b815481529060010190602001808311610a5857829003601f168201915b505050505081526020016004820154815250508152602001906001019061089b565b50505050905090565b6000600380549050905090565b60038181548110610abd57600080fd5b9060005260206000209060050201600091509050806000018054610ae0906127fc565b80601f0160208091040260200160405190810160405280929190818152602001828054610b0c906127fc565b8015610b595780601f10610b2e57610100808354040283529160200191610b59565b820191906000526020600020905b815481529060010190602001808311610b3c57829003601f168201915b505050505090806001015490806002018054610b74906127fc565b80601f0160208091040260200160405190810160405280929190818152602001828054610ba0906127fc565b8015610bed5780601f10610bc257610100808354040283529160200191610bed565b820191906000526020600020905b815481529060010190602001808311610bd057829003601f168201915b505050505090806003018054610c02906127fc565b80601f0160208091040260200160405190810160405280929190818152602001828054610c2e906127fc565b8015610c7b5780601f10610c5057610100808354040283529160200191610c7b565b820191906000526020600020905b815481529060010190602001808311610c5e57829003601f168201915b5050505050908060040154905085565b6060600060075467ffffffffffffffff811115610cd1577f4e487b7100000000000000000000000000000000000000000000000000000000600052604160045260246000fd5b604051908082528060200260200182016040528015610d0a57816020015b610cf7611b13565b815260200190600190039081610cef5790505b50905060005b600754811015610edc57600060048281548110610d56577f4e487b7100000000000000000000000000000000000000000000000000000000600052603260045260246000fd5b9060005260206000200160009054906101000a900473ffffffffffffffffffffffffffffffffffffffff169050600160008273ffffffffffffffffffffffffffffffffffffffff1673ffffffffffffffffffffffffffffffffffffffff168152602001908152602001600020604051806060016040529081600082018054610ddd906127fc565b80601f0160208091040260200160405190810160405280929190818152602001828054610e09906127fc565b8015610e565780601f10610e2b57610100808354040283529160200191610e56565b820191906000526020600020905b815481529060010190602001808311610e3957829003601f168201915b50505050508152602001600182015481526020016002820160009054906101000a900460ff161515151581525050838381518110610ebd577f4e487b7100000000000000000000000000000000000000000000000000000000600052603260045260246000fd5b6020026020010181905250508080610ed49061282e565b915050610d10565b508091505090565b60008054906101000a900473ffffffffffffffffffffffffffffffffffffffff1673ffffffffffffffffffffffffffffffffffffffff163373ffffffffffffffffffffffffffffffffffffffff1614610f72576040517f08c379a0000000000000000000000000000000000000000000000000000000008152600401610f6990612433565b60405180910390fd5b600654421015610fb7576040517f08c379a0000000000000000000000000000000000000000000000000000000008152600401610fae90612493565b60405180910390fd5b42600581905550600060055411611003576040517f08c379a0000000000000000000000000000000000000000000000000000000008152600401610ffa90612473565b60405180910390fd5b60008111611046576040517f08c379a000000000000000000000000000000000000000000000000000000000815260040161103d906124b3565b60405180910390fd5b603c8161105391906126e4565b600554611060919061268e565b60068190555050565b6000611073611a69565b905090565b60075481565b60606000606080600060038054905086106110ce576040517f08c379a00000000000000000000000000000000000000000000000000000000081526004016110c5906124d3565b60405180910390fd5b60006003878154811061110a577f4e487b7100000000000000000000000000000000000000000000000000000000600052603260045260246000fd5b906000526020600020906005020190508060000181600101548260030183600201846004015484805461113c906127fc565b80601f0160208091040260200160405190810160405280929190818152602001828054611168906127fc565b80156111b55780601f1061118a576101008083540402835291602001916111b5565b820191906000526020600020905b81548152906001019060200180831161119857829003601f168201915b505050505094508280546111c8906127fc565b80601f01602080910402602001604051908101604052809291908181526020018280546111f4906127fc565b80156112415780601f1061121657610100808354040283529160200191611241565b820191906000526020600020905b81548152906001019060200180831161122457829003601f168201915b50505050509250818054611254906127fc565b80601f0160208091040260200160405190810160405280929190818152602001828054611280906127fc565b80156112cd5780601f106112a2576101008083540402835291602001916112cd565b820191906000526020600020905b8154815290600101906020018083116112b057829003601f168201915b50505050509150955095509550955095505091939590929450565b60008054906101000a900473ffffffffffffffffffffffffffffffffffffffff1673ffffffffffffffffffffffffffffffffffffffff163373ffffffffffffffffffffffffffffffffffffffff1614611376576040517f08c379a000000000000000000000000000000000000000000000000000000000815260040161136d90612433565b60405180910390fd5b61137e61169f565b6000606060005b60038054905081101561151d5782600382815481106113cd577f4e487b7100000000000000000000000000000000000000000000000000000000600052603260045260246000fd5b906000526020600020906005020160040154111561150a576003818154811061141f577f4e487b7100000000000000000000000000000000000000000000000000000000600052603260045260246000fd5b90600052602060002090600502016004015492506003818154811061146d577f4e487b7100000000000000000000000000000000000000000000000000000000600052603260045260246000fd5b90600052602060002090600502016000018054611489906127fc565b80601f01602080910402602001604051908101604052809291908181526020018280546114b5906127fc565b80156115025780601f106114d757610100808354040283529160200191611502565b820191906000526020600020905b8154815290600101906020018083116114e557829003601f168201915b505050505091505b80806115159061282e565b915050611385565b507f29e79cde71417375ffd994f45819ee4fa57bd2bf00dc120499710ff0f43b6d338160405161154d919061236b565b60405180910390a15050565b60065481565b60026020528060005260406000206000915054906101000a900460ff1681565b60016020528060005260406000206000915090508060000180546115a2906127fc565b80601f01602080910402602001604051908101604052809291908181526020018280546115ce906127fc565b801561161b5780601f106115f05761010080835404028352916020019161161b565b820191906000526020600020905b8154815290600101906020018083116115fe57829003601f168201915b5050505050908060010154908060020160009054906101000a900460ff16905083565b6000600754905090565b60008060009054906101000a900473ffffffffffffffffffffffffffffffffffffffff1673ffffffffffffffffffffffffffffffffffffffff163373ffffffffffffffffffffffffffffffffffffffff1614905090565b60008054906101000a900473ffffffffffffffffffffffffffffffffffffffff1673ffffffffffffffffffffffffffffffffffffffff163373ffffffffffffffffffffffffffffffffffffffff161461172d576040517f08c379a000000000000000000000000000000000000000000000000000000000815260040161172490612433565b60405180910390fd5b600060055411611772576040517f08c379a000000000000000000000000000000000000000000000000000000000815260040161176990612473565b60405180910390fd5b60065442106117b6576040517f08c379a00000000000000000000000000000000000000000000000000000000081526004016117ad90612553565b60405180910390fd5b6117be611a83565b565b600260003373ffffffffffffffffffffffffffffffffffffffff1673ffffffffffffffffffffffffffffffffffffffff16815260200190815260200160002060009054906101000a900460ff161561184d576040517f08c379a000000000000000000000000000000000000000000000000000000000815260040161184490612513565b60405180910390fd5b604051806060016040528083815260200182815260200160001515815250600160003373ffffffffffffffffffffffffffffffffffffffff1673ffffffffffffffffffffffffffffffffffffffff16815260200190815260200160002060008201518160000190805190602001906118c6929190611a8d565b506020820151816001015560408201518160020160006101000a81548160ff0219169083151502179055509050506001600260003373ffffffffffffffffffffffffffffffffffffffff1673ffffffffffffffffffffffffffffffffffffffff16815260200190815260200160002060006101000a81548160ff0219169083151502179055506004339080600181540180825580915050600190039060005260206000200160009091909190916101000a81548173ffffffffffffffffffffffffffffffffffffffff021916908373ffffffffffffffffffffffffffffffffffffffff160217905550600760008154809291906119c29061282e565b91905055505050565b60008060055414156119e05760009050611a03565b60065442106119f25760009050611a03565b42600654611a00919061273e565b90505b90565b60048181548110611a1657600080fd5b906000526020600020016000915054906101000a900473ffffffffffffffffffffffffffffffffffffffff1681565b60008054906101000a900473ffffffffffffffffffffffffffffffffffffffff1681565b60006005544210158015611a7e575060065442105b905090565b6000600681905550565b828054611a99906127fc565b90600052602060002090601f016020900481019282611abb5760008555611b02565b82601f10611ad457805160ff1916838001178555611b02565b82800160010185558215611b02579182015b82811115611b01578251825591602001919060010190611ae6565b5b509050611b0f9190611b36565b5090565b604051806060016040528060608152602001600081526020016000151581525090565b5b80821115611b4f576000816000905550600101611b37565b5090565b6000611b66611b61846125bf565b61258e565b905082815260208101848484011115611b7e57600080fd5b611b898482856127ba565b509392505050565b600081359050611ba081612915565b92915050565b600082601f830112611bb757600080fd5b8135611bc7848260208601611b53565b91505092915050565b600081359050611bdf8161292c565b92915050565b600060208284031215611bf757600080fd5b6000611c0584828501611b91565b91505092915050565b60008060408385031215611c2157600080fd5b600083013567ffffffffffffffff811115611c3b57600080fd5b611c4785828601611ba6565b9250506020611c5885828601611bd0565b9150509250929050565b60008060008060808587031215611c7857600080fd5b600085013567ffffffffffffffff811115611c9257600080fd5b611c9e87828801611ba6565b9450506020611caf87828801611bd0565b935050604085013567ffffffffffffffff811115611ccc57600080fd5b611cd887828801611ba6565b925050606085013567ffffffffffffffff811115611cf557600080fd5b611d0187828801611ba6565b91505092959194509250565b600060208284031215611d1f57600080fd5b6000611d2d84828501611bd0565b91505092915050565b6000611d4283836121ff565b905092915050565b6000611d568383612283565b905092915050565b611d6781612772565b82525050565b6000611d788261260f565b611d82818561264a565b935083602082028501611d94856125ef565b8060005b85811015611dd05784840389528151611db18582611d36565b9450611dbc83612630565b925060208a01995050600181019050611d98565b50829750879550505050505092915050565b6000611ded8261261a565b611df7818561265b565b935083602082028501611e09856125ff565b8060005b85811015611e455784840389528151611e268582611d4a565b9450611e318361263d565b925060208a01995050600181019050611e0d565b50829750879550505050505092915050565b611e6081612784565b82525050565b611e6f81612784565b82525050565b6000611e8082612625565b611e8a818561266c565b9350611e9a8185602086016127c9565b611ea381612904565b840191505092915050565b6000611eb982612625565b611ec3818561267d565b9350611ed38185602086016127c9565b611edc81612904565b840191505092915050565b6000611ef460258361267d565b91507f4f6e6c79207468652061646d696e2063616e2063616c6c20746869732066756e60008301527f6374696f6e0000000000000000000000000000000000000000000000000000006020830152604082019050919050565b6000611f5a602d8361267d565b91507f4f6e6c79207265676973746572656420766f746572732063616e2063616c6c2060008301527f746869732066756e6374696f6e000000000000000000000000000000000000006020830152604082019050919050565b6000611fc0601a8361267d565b91507f566f74696e6720686173206e6f742073746172746564207965740000000000006000830152602082019050919050565b600061200060318361267d565b91507f566f74696e672066726f6d207468652070726576696f757320706572696f642060008301527f686173206e6f7420656e646564207965740000000000000000000000000000006020830152604082019050919050565b600061206660298361267d565b91507f566f74696e67206475726174696f6e206d75737420626520677265617465722060008301527f7468616e207a65726f00000000000000000000000000000000000000000000006020830152604082019050919050565b60006120cc60178361267d565b91507f496e76616c69642063616e64696461746520696e6465780000000000000000006000830152602082019050919050565b600061210c601c8361267d565b91507f566f74696e67206973206e6f742063757272656e746c79206f70656e000000006000830152602082019050919050565b600061214c601b8361267d565b91507f566f74657220697320616c7265616479207265676973746572656400000000006000830152602082019050919050565b600061218c60168361267d565b91507f596f75206861766520616c726561647920766f746564000000000000000000006000830152602082019050919050565b60006121cc60188361267d565b91507f566f74696e672068617320616c726561647920656e64656400000000000000006000830152602082019050919050565b600060a083016000830151848203600086015261221c8282611e75565b915050602083015161223160208601826122d3565b50604083015184820360408601526122498282611e75565b915050606083015184820360608601526122638282611e75565b915050608083015161227860808601826122d3565b508091505092915050565b600060608301600083015184820360008601526122a08282611e75565b91505060208301516122b560208601826122d3565b5060408301516122c86040860182611e57565b508091505092915050565b6122dc816127b0565b82525050565b6122eb816127b0565b82525050565b60006020820190506123066000830184611d5e565b92915050565b600060208201905081810360008301526123268184611d6d565b905092915050565b600060208201905081810360008301526123488184611de2565b905092915050565b60006020820190506123656000830184611e66565b92915050565b600060208201905081810360008301526123858184611eae565b905092915050565b600060608201905081810360008301526123a78186611eae565b90506123b660208301856122e2565b6123c36040830184611e66565b949350505050565b600060a08201905081810360008301526123e58188611eae565b90506123f460208301876122e2565b81810360408301526124068186611eae565b9050818103606083015261241a8185611eae565b905061242960808301846122e2565b9695505050505050565b6000602082019050818103600083015261244c81611ee7565b9050919050565b6000602082019050818103600083015261246c81611f4d565b9050919050565b6000602082019050818103600083015261248c81611fb3565b9050919050565b600060208201905081810360008301526124ac81611ff3565b9050919050565b600060208201905081810360008301526124cc81612059565b9050919050565b600060208201905081810360008301526124ec816120bf565b9050919050565b6000602082019050818103600083015261250c816120ff565b9050919050565b6000602082019050818103600083015261252c8161213f565b9050919050565b6000602082019050818103600083015261254c8161217f565b9050919050565b6000602082019050818103600083015261256c816121bf565b9050919050565b600060208201905061258860008301846122e2565b92915050565b6000604051905081810181811067ffffffffffffffff821117156125b5576125b46128d5565b5b8060405250919050565b600067ffffffffffffffff8211156125da576125d96128d5565b5b601f19601f8301169050602081019050919050565b6000819050602082019050919050565b6000819050602082019050919050565b600081519050919050565b600081519050919050565b600081519050919050565b6000602082019050919050565b6000602082019050919050565b600082825260208201905092915050565b600082825260208201905092915050565b600082825260208201905092915050565b600082825260208201905092915050565b6000612699826127b0565b91506126a4836127b0565b9250827fffffffffffffffffffffffffffffffffffffffffffffffffffffffffffffffff038211156126d9576126d8612877565b5b828201905092915050565b60006126ef826127b0565b91506126fa836127b0565b9250817fffffffffffffffffffffffffffffffffffffffffffffffffffffffffffffffff048311821515161561273357612732612877565b5b828202905092915050565b6000612749826127b0565b9150612754836127b0565b92508282101561276757612766612877565b5b828203905092915050565b600061277d82612790565b9050919050565b60008115159050919050565b600073ffffffffffffffffffffffffffffffffffffffff82169050919050565b6000819050919050565b82818337600083830152505050565b60005b838110156127e75780820151818401526020810190506127cc565b838111156127f6576000848401525b50505050565b6000600282049050600182168061281457607f821691505b60208210811415612828576128276128a6565b5b50919050565b6000612839826127b0565b91507fffffffffffffffffffffffffffffffffffffffffffffffffffffffffffffffff82141561286c5761286b612877565b5b600182019050919050565b7f4e487b7100000000000000000000000000000000000000000000000000000000600052601160045260246000fd5b7f4e487b7100000000000000000000000000000000000000000000000000000000600052602260045260246000fd5b7f4e487b7100000000000000000000000000000000000000000000000000000000600052604160045260246000fd5b6000601f19601f8301169050919050565b61291e81612772565b811461292957600080fd5b50565b612935816127b0565b811461294057600080fd5b5056fea264697066735822122018f44bbca46587af0ab64abc8b331ac4399d29ab6ffe354e1181d3901a038c2464736f6c63430008000033",
  "linkReferences": {},
  "deployedLinkReferences": {}
}